{
	"UtilityBillTracker.sol": {
		"Project": {
			"abi": [
				{
					"inputs": [],
					"stateMutability": "nonpayable",
					"type": "constructor"
				},
				{
					"anonymous": false,
					"inputs": [
						{
							"indexed": true,
							"internalType": "uint256",
							"name": "billID",
							"type": "uint256"
						},
						{
							"indexed": true,
							"internalType": "address",
							"name": "consumer",
							"type": "address"
						},
						{
							"indexed": false,
							"internalType": "uint256",
							"name": "amountDue",
							"type": "uint256"
						},
						{
							"indexed": false,
							"internalType": "uint256",
							"name": "dueDate",
							"type": "uint256"
						}
					],
					"name": "BillAdded",
					"type": "event"
				},
				{
					"anonymous": false,
					"inputs": [
						{
							"indexed": true,
							"internalType": "uint256",
							"name": "billID",
							"type": "uint256"
						},
						{
							"indexed": true,
							"internalType": "address",
							"name": "consumer",
							"type": "address"
						},
						{
							"indexed": false,
							"internalType": "uint256",
							"name": "amountPaid",
							"type": "uint256"
						},
						{
							"indexed": false,
							"internalType": "uint256",
							"name": "datePaid",
							"type": "uint256"
						}
					],
					"name": "BillPaid",
					"type": "event"
				},
				{
					"inputs": [
						{
							"internalType": "address payable",
							"name": "_consumer",
							"type": "address"
						},
						{
							"internalType": "uint256",
							"name": "_amountDue",
							"type": "uint256"
						},
						{
							"internalType": "uint256",
							"name": "_dueDate",
							"type": "uint256"
						}
					],
					"name": "addBill",
					"outputs": [],
					"stateMutability": "nonpayable",
					"type": "function"
				},
				{
					"inputs": [
						{
							"internalType": "uint256",
							"name": "",
							"type": "uint256"
						}
					],
					"name": "idToBill",
					"outputs": [
						{
							"internalType": "address payable",
							"name": "consumer",
							"type": "address"
						},
						{
							"internalType": "address payable",
							"name": "utilityProvider",
							"type": "address"
						},
						{
							"internalType": "uint256",
							"name": "amountDue",
							"type": "uint256"
						},
						{
							"internalType": "uint256",
							"name": "dueDate",
							"type": "uint256"
						},
						{
							"internalType": "bool",
							"name": "isPaid",
							"type": "bool"
						},
						{
							"internalType": "uint256",
							"name": "datePaid",
							"type": "uint256"
						}
					],
					"stateMutability": "view",
					"type": "function"
				},
				{
					"inputs": [
						{
							"internalType": "uint256",
							"name": "_billID",
							"type": "uint256"
						}
					],
					"name": "isOverdue",
					"outputs": [
						{
							"internalType": "bool",
							"name": "",
							"type": "bool"
						}
					],
					"stateMutability": "view",
					"type": "function"
				},
				{
					"inputs": [
						{
							"internalType": "uint256",
							"name": "_billID",
							"type": "uint256"
						}
					],
					"name": "payBill",
					"outputs": [],
					"stateMutability": "payable",
					"type": "function"
				}
			],
			"devdoc": {
				"kind": "dev",
				"methods": {
					"addBill(address,uint256,uint256)": {
						"params": {
							"_amountDue": "The bill amount in Wei.",
							"_consumer": "The address of the customer who owes the bill.",
							"_dueDate": "The Unix timestamp representing the payment due date."
						}
					},
					"isOverdue(uint256)": {
						"params": {
							"_billID": "The unique ID of the bill."
						},
						"returns": {
							"_0": "bool True if the current time is past the due date."
						}
					},
					"payBill(uint256)": {
						"details": "The function must be 'payable' to accept Ether (msg.value).",
						"params": {
							"_billID": "The unique ID of the bill being paid."
						}
					}
				},
				"title": "UtilityBillTracker",
				"version": 1
			},
			"evm": {
				"assembly": "    /* \"UtilityBillTracker.sol\":196:4376  contract Project {\r... */\n  mstore(0x40, 0xa0)\n    /* \"UtilityBillTracker.sol\":1476:1529  constructor() {\r... */\n  callvalue\n  dup1\n  iszero\n  tag_1\n  jumpi\n  0x00\n  dup1\n  revert\ntag_1:\n  pop\n    /* \"UtilityBillTracker.sol\":1511:1521  msg.sender */\n  caller\n    /* \"UtilityBillTracker.sol\":1501:1521  i_owner = msg.sender */\n  0xffffffffffffffffffffffffffffffffffffffff\n  and\n  0x80\n  dup2\n  0xffffffffffffffffffffffffffffffffffffffff\n  and\n  0x60\n  shl\n  dup2\n  mstore\n  pop\n  pop\n    /* \"UtilityBillTracker.sol\":196:4376  contract Project {\r... */\n  shr(0x60, mload(0x80))\n  codecopy(0x00, dataOffset(sub_0), dataSize(sub_0))\n  0x00\n  assignImmutable(\"0x13600b294191fc92924bb3ce4b969c1e7e2bab8f4c93c3fc6d0a51733df3c060\")\n  return(0x00, dataSize(sub_0))\nstop\n\nsub_0: assembly {\n        /* \"UtilityBillTracker.sol\":196:4376  contract Project {\r... */\n      mstore(0x40, 0x80)\n      jumpi(tag_1, lt(calldatasize, 0x04))\n      shr(0xe0, calldataload(0x00))\n      dup1\n      0x1a47ff3a\n      eq\n      tag_2\n      jumpi\n      dup1\n      0x875781af\n      eq\n      tag_3\n      jumpi\n      dup1\n      0xd22a0d0f\n      eq\n      tag_4\n      jumpi\n      dup1\n      0xf0975190\n      eq\n      tag_5\n      jumpi\n    tag_1:\n      0x00\n      dup1\n      revert\n        /* \"UtilityBillTracker.sol\":890:927  mapping(uint => Bill) public idToBill */\n    tag_2:\n      callvalue\n      dup1\n      iszero\n      tag_6\n      jumpi\n      0x00\n      dup1\n      revert\n    tag_6:\n      pop\n      tag_7\n      0x04\n      dup1\n      calldatasize\n      sub\n      dup2\n      add\n      swap1\n      tag_8\n      swap2\n      swap1\n      tag_9\n      jump\t// in\n    tag_8:\n      tag_10\n      jump\t// in\n    tag_7:\n      mload(0x40)\n      tag_11\n      swap7\n      swap6\n      swap5\n      swap4\n      swap3\n      swap2\n      swap1\n      tag_12\n      jump\t// in\n    tag_11:\n      mload(0x40)\n      dup1\n      swap2\n      sub\n      swap1\n      return\n        /* \"UtilityBillTracker.sol\":1872:2442  function addBill(\r... */\n    tag_3:\n      callvalue\n      dup1\n      iszero\n      tag_13\n      jumpi\n      0x00\n      dup1\n      revert\n    tag_13:\n      pop\n      tag_14\n      0x04\n      dup1\n      calldatasize\n      sub\n      dup2\n      add\n      swap1\n      tag_15\n      swap2\n      swap1\n      tag_16\n      jump\t// in\n    tag_15:\n      tag_17\n      jump\t// in\n    tag_14:\n      stop\n        /* \"UtilityBillTracker.sol\":4035:4373  function isOverdue(uint _billID) public view returns (bool) {\r... */\n    tag_4:\n      callvalue\n      dup1\n      iszero\n      tag_18\n      jumpi\n      0x00\n      dup1\n      revert\n    tag_18:\n      pop\n      tag_19\n      0x04\n      dup1\n      calldatasize\n      sub\n      dup2\n      add\n      swap1\n      tag_20\n      swap2\n      swap1\n      tag_9\n      jump\t// in\n    tag_20:\n      tag_21\n      jump\t// in\n    tag_19:\n      mload(0x40)\n      tag_22\n      swap2\n      swap1\n      tag_23\n      jump\t// in\n    tag_22:\n      mload(0x40)\n      dup1\n      swap2\n      sub\n      swap1\n      return\n        /* \"UtilityBillTracker.sol\":2655:3836  function payBill(uint _billID) public payable {\r... */\n    tag_5:\n      tag_24\n      0x04\n      dup1\n      calldatasize\n      sub\n      dup2\n      add\n      swap1\n      tag_25\n      swap2\n      swap1\n      tag_9\n      jump\t// in\n    tag_25:\n      tag_26\n      jump\t// in\n    tag_24:\n      stop\n        /* \"UtilityBillTracker.sol\":890:927  mapping(uint => Bill) public idToBill */\n    tag_10:\n      mstore(0x20, 0x01)\n      dup1\n      0x00\n      mstore\n      keccak256(0x00, 0x40)\n      0x00\n      swap2\n      pop\n      swap1\n      pop\n      dup1\n      0x00\n      add\n      0x00\n      swap1\n      sload\n      swap1\n      0x0100\n      exp\n      swap1\n      div\n      0xffffffffffffffffffffffffffffffffffffffff\n      and\n      swap1\n      dup1\n      0x01\n      add\n      0x00\n      swap1\n      sload\n      swap1\n      0x0100\n      exp\n      swap1\n      div\n      0xffffffffffffffffffffffffffffffffffffffff\n      and\n      swap1\n      dup1\n      0x02\n      add\n      sload\n      swap1\n      dup1\n      0x03\n      add\n      sload\n      swap1\n      dup1\n      0x04\n      add\n      0x00\n      swap1\n      sload\n      swap1\n      0x0100\n      exp\n      swap1\n      div\n      0xff\n      and\n      swap1\n      dup1\n      0x05\n      add\n      sload\n      swap1\n      pop\n      dup7\n      jump\t// out\n        /* \"UtilityBillTracker.sol\":1872:2442  function addBill(\r... */\n    tag_17:\n        /* \"UtilityBillTracker.sol\":1311:1318  i_owner */\n      immutable(\"0x13600b294191fc92924bb3ce4b969c1e7e2bab8f4c93c3fc6d0a51733df3c060\")\n        /* \"UtilityBillTracker.sol\":1297:1318  msg.sender == i_owner */\n      0xffffffffffffffffffffffffffffffffffffffff\n      and\n        /* \"UtilityBillTracker.sol\":1297:1307  msg.sender */\n      caller\n        /* \"UtilityBillTracker.sol\":1297:1318  msg.sender == i_owner */\n      0xffffffffffffffffffffffffffffffffffffffff\n      and\n      eq\n        /* \"UtilityBillTracker.sol\":1289:1379  require(msg.sender == i_owner, \"Access: Only the Utility Provider (Owner) can call this.\") */\n      tag_28\n      jumpi\n      mload(0x40)\n      0x08c379a000000000000000000000000000000000000000000000000000000000\n      dup2\n      mstore\n      0x04\n      add\n      tag_29\n      swap1\n      tag_30\n      jump\t// in\n    tag_29:\n      mload(0x40)\n      dup1\n      swap2\n      sub\n      swap1\n      revert\n    tag_28:\n        /* \"UtilityBillTracker.sol\":2010:2021  s_billCount */\n      0x00\n      dup1\n        /* \"UtilityBillTracker.sol\":2010:2023  s_billCount++ */\n      dup2\n      sload\n      dup1\n      swap3\n      swap2\n      swap1\n      tag_32\n      swap1\n      tag_33\n      jump\t// in\n    tag_32:\n      swap2\n      swap1\n      pop\n      sstore\n      pop\n        /* \"UtilityBillTracker.sol\":2137:2361  Bill({\r... */\n      mload(0x40)\n      dup1\n      0xc0\n      add\n      0x40\n      mstore\n      dup1\n        /* \"UtilityBillTracker.sol\":2167:2176  _consumer */\n      dup5\n        /* \"UtilityBillTracker.sol\":2137:2361  Bill({\r... */\n      0xffffffffffffffffffffffffffffffffffffffff\n      and\n      dup2\n      mstore\n      0x20\n      add\n        /* \"UtilityBillTracker.sol\":2216:2226  msg.sender */\n      caller\n        /* \"UtilityBillTracker.sol\":2137:2361  Bill({\r... */\n      0xffffffffffffffffffffffffffffffffffffffff\n      and\n      dup2\n      mstore\n      0x20\n      add\n        /* \"UtilityBillTracker.sol\":2253:2263  _amountDue */\n      dup4\n        /* \"UtilityBillTracker.sol\":2137:2361  Bill({\r... */\n      dup2\n      mstore\n      0x20\n      add\n        /* \"UtilityBillTracker.sol\":2287:2295  _dueDate */\n      dup3\n        /* \"UtilityBillTracker.sol\":2137:2361  Bill({\r... */\n      dup2\n      mstore\n      0x20\n      add\n        /* \"UtilityBillTracker.sol\":2318:2323  false */\n      0x00\n        /* \"UtilityBillTracker.sol\":2137:2361  Bill({\r... */\n      iszero\n      iszero\n      dup2\n      mstore\n      0x20\n      add\n        /* \"UtilityBillTracker.sol\":2348:2349  0 */\n      0x00\n        /* \"UtilityBillTracker.sol\":2137:2361  Bill({\r... */\n      dup2\n      mstore\n      pop\n        /* \"UtilityBillTracker.sol\":2113:2121  idToBill */\n      0x01\n        /* \"UtilityBillTracker.sol\":2113:2134  idToBill[s_billCount] */\n      0x00\n        /* \"UtilityBillTracker.sol\":2122:2133  s_billCount */\n      dup1\n      sload\n        /* \"UtilityBillTracker.sol\":2113:2134  idToBill[s_billCount] */\n      dup2\n      mstore\n      0x20\n      add\n      swap1\n      dup2\n      mstore\n      0x20\n      add\n      0x00\n      keccak256\n        /* \"UtilityBillTracker.sol\":2113:2361  idToBill[s_billCount] = Bill({\r... */\n      0x00\n      dup3\n      add\n      mload\n      dup2\n      0x00\n      add\n      exp(0x0100, 0x00)\n      dup2\n      sload\n      dup2\n      0xffffffffffffffffffffffffffffffffffffffff\n      mul\n      not\n      and\n      swap1\n      dup4\n      0xffffffffffffffffffffffffffffffffffffffff\n      and\n      mul\n      or\n      swap1\n      sstore\n      pop\n      0x20\n      dup3\n      add\n      mload\n      dup2\n      0x01\n      add\n      exp(0x0100, 0x00)\n      dup2\n      sload\n      dup2\n      0xffffffffffffffffffffffffffffffffffffffff\n      mul\n      not\n      and\n      swap1\n      dup4\n      0xffffffffffffffffffffffffffffffffffffffff\n      and\n      mul\n      or\n      swap1\n      sstore\n      pop\n      0x40\n      dup3\n      add\n      mload\n      dup2\n      0x02\n      add\n      sstore\n      0x60\n      dup3\n      add\n      mload\n      dup2\n      0x03\n      add\n      sstore\n      0x80\n      dup3\n      add\n      mload\n      dup2\n      0x04\n      add\n      exp(0x0100, 0x00)\n      dup2\n      sload\n      dup2\n      0xff\n      mul\n      not\n      and\n      swap1\n      dup4\n      iszero\n      iszero\n      mul\n      or\n      swap1\n      sstore\n      pop\n      0xa0\n      dup3\n      add\n      mload\n      dup2\n      0x05\n      add\n      sstore\n      swap1\n      pop\n      pop\n        /* \"UtilityBillTracker.sol\":2402:2411  _consumer */\n      dup3\n        /* \"UtilityBillTracker.sol\":2379:2434  BillAdded(s_billCount, _consumer, _amountDue, _dueDate) */\n      0xffffffffffffffffffffffffffffffffffffffff\n      and\n        /* \"UtilityBillTracker.sol\":2389:2400  s_billCount */\n      sload(0x00)\n        /* \"UtilityBillTracker.sol\":2379:2434  BillAdded(s_billCount, _consumer, _amountDue, _dueDate) */\n      0x2c0c58266e0c9a9f772c7920b4999e21ea08bcd6aacb3d4c6ed3ad7945dae702\n        /* \"UtilityBillTracker.sol\":2413:2423  _amountDue */\n      dup5\n        /* \"UtilityBillTracker.sol\":2425:2433  _dueDate */\n      dup5\n        /* \"UtilityBillTracker.sol\":2379:2434  BillAdded(s_billCount, _consumer, _amountDue, _dueDate) */\n      mload(0x40)\n      tag_34\n      swap3\n      swap2\n      swap1\n      tag_35\n      jump\t// in\n    tag_34:\n      mload(0x40)\n      dup1\n      swap2\n      sub\n      swap1\n      log3\n        /* \"UtilityBillTracker.sol\":1872:2442  function addBill(\r... */\n      pop\n      pop\n      pop\n      jump\t// out\n        /* \"UtilityBillTracker.sol\":4035:4373  function isOverdue(uint _billID) public view returns (bool) {\r... */\n    tag_21:\n        /* \"UtilityBillTracker.sol\":4089:4093  bool */\n      0x00\n        /* \"UtilityBillTracker.sol\":4200:4201  0 */\n      dup1\n        /* \"UtilityBillTracker.sol\":4162:4202  idToBill[_billID].consumer != address(0) */\n      0xffffffffffffffffffffffffffffffffffffffff\n      and\n        /* \"UtilityBillTracker.sol\":4162:4170  idToBill */\n      0x01\n        /* \"UtilityBillTracker.sol\":4162:4179  idToBill[_billID] */\n      0x00\n        /* \"UtilityBillTracker.sol\":4171:4178  _billID */\n      dup5\n        /* \"UtilityBillTracker.sol\":4162:4179  idToBill[_billID] */\n      dup2\n      mstore\n      0x20\n      add\n      swap1\n      dup2\n      mstore\n      0x20\n      add\n      0x00\n      keccak256\n        /* \"UtilityBillTracker.sol\":4162:4188  idToBill[_billID].consumer */\n      0x00\n      add\n      0x00\n      swap1\n      sload\n      swap1\n      0x0100\n      exp\n      swap1\n      div\n      0xffffffffffffffffffffffffffffffffffffffff\n      and\n        /* \"UtilityBillTracker.sol\":4162:4202  idToBill[_billID].consumer != address(0) */\n      0xffffffffffffffffffffffffffffffffffffffff\n      and\n      eq\n      iszero\n        /* \"UtilityBillTracker.sol\":4154:4237  require(idToBill[_billID].consumer != address(0), \"Error: Bill ID does not exist.\") */\n      tag_37\n      jumpi\n      mload(0x40)\n      0x08c379a000000000000000000000000000000000000000000000000000000000\n      dup2\n      mstore\n      0x04\n      add\n      tag_38\n      swap1\n      tag_39\n      jump\t// in\n    tag_38:\n      mload(0x40)\n      dup1\n      swap2\n      sub\n      swap1\n      revert\n    tag_37:\n        /* \"UtilityBillTracker.sol\":4340:4348  idToBill */\n      0x01\n        /* \"UtilityBillTracker.sol\":4340:4357  idToBill[_billID] */\n      0x00\n        /* \"UtilityBillTracker.sol\":4349:4356  _billID */\n      dup4\n        /* \"UtilityBillTracker.sol\":4340:4357  idToBill[_billID] */\n      dup2\n      mstore\n      0x20\n      add\n      swap1\n      dup2\n      mstore\n      0x20\n      add\n      0x00\n      keccak256\n        /* \"UtilityBillTracker.sol\":4340:4365  idToBill[_billID].dueDate */\n      0x03\n      add\n      sload\n        /* \"UtilityBillTracker.sol\":4322:4337  block.timestamp */\n      timestamp\n        /* \"UtilityBillTracker.sol\":4322:4365  block.timestamp > idToBill[_billID].dueDate */\n      gt\n        /* \"UtilityBillTracker.sol\":4315:4365  return block.timestamp > idToBill[_billID].dueDate */\n      swap1\n      pop\n        /* \"UtilityBillTracker.sol\":4035:4373  function isOverdue(uint _billID) public view returns (bool) {\r... */\n      swap2\n      swap1\n      pop\n      jump\t// out\n        /* \"UtilityBillTracker.sol\":2655:3836  function payBill(uint _billID) public payable {\r... */\n    tag_26:\n        /* \"UtilityBillTracker.sol\":2760:2777  Bill storage bill */\n      0x00\n        /* \"UtilityBillTracker.sol\":2780:2788  idToBill */\n      0x01\n        /* \"UtilityBillTracker.sol\":2780:2797  idToBill[_billID] */\n      0x00\n        /* \"UtilityBillTracker.sol\":2789:2796  _billID */\n      dup4\n        /* \"UtilityBillTracker.sol\":2780:2797  idToBill[_billID] */\n      dup2\n      mstore\n      0x20\n      add\n      swap1\n      dup2\n      mstore\n      0x20\n      add\n      0x00\n      keccak256\n        /* \"UtilityBillTracker.sol\":2760:2797  Bill storage bill = idToBill[_billID] */\n      swap1\n      pop\n        /* \"UtilityBillTracker.sol\":2865:2875  msg.sender */\n      caller\n        /* \"UtilityBillTracker.sol\":2848:2875  bill.consumer == msg.sender */\n      0xffffffffffffffffffffffffffffffffffffffff\n      and\n        /* \"UtilityBillTracker.sol\":2848:2852  bill */\n      dup2\n        /* \"UtilityBillTracker.sol\":2848:2861  bill.consumer */\n      0x00\n      add\n      0x00\n      swap1\n      sload\n      swap1\n      0x0100\n      exp\n      swap1\n      div\n      0xffffffffffffffffffffffffffffffffffffffff\n      and\n        /* \"UtilityBillTracker.sol\":2848:2875  bill.consumer == msg.sender */\n      0xffffffffffffffffffffffffffffffffffffffff\n      and\n      eq\n        /* \"UtilityBillTracker.sol\":2840:2935  require(bill.consumer == msg.sender, \"Payment Failed: You are not the consumer for this bill.\") */\n      tag_41\n      jumpi\n      mload(0x40)\n      0x08c379a000000000000000000000000000000000000000000000000000000000\n      dup2\n      mstore\n      0x04\n      add\n      tag_42\n      swap1\n      tag_43\n      jump\t// in\n    tag_42:\n      mload(0x40)\n      dup1\n      swap2\n      sub\n      swap1\n      revert\n    tag_41:\n        /* \"UtilityBillTracker.sol\":2969:2974  false */\n      0x00\n        /* \"UtilityBillTracker.sol\":2954:2974  bill.isPaid == false */\n      iszero\n      iszero\n        /* \"UtilityBillTracker.sol\":2954:2958  bill */\n      dup2\n        /* \"UtilityBillTracker.sol\":2954:2965  bill.isPaid */\n      0x04\n      add\n      0x00\n      swap1\n      sload\n      swap1\n      0x0100\n      exp\n      swap1\n      div\n      0xff\n      and\n        /* \"UtilityBillTracker.sol\":2954:2974  bill.isPaid == false */\n      iszero\n      iszero\n      eq\n        /* \"UtilityBillTracker.sol\":2946:3016  require(bill.isPaid == false, \"Payment Failed: Bill is already paid.\") */\n      tag_44\n      jumpi\n      mload(0x40)\n      0x08c379a000000000000000000000000000000000000000000000000000000000\n      dup2\n      mstore\n      0x04\n      add\n      tag_45\n      swap1\n      tag_46\n      jump\t// in\n    tag_45:\n      mload(0x40)\n      dup1\n      swap2\n      sub\n      swap1\n      revert\n    tag_44:\n        /* \"UtilityBillTracker.sol\":3048:3052  bill */\n      dup1\n        /* \"UtilityBillTracker.sol\":3048:3062  bill.amountDue */\n      0x02\n      add\n      sload\n        /* \"UtilityBillTracker.sol\":3035:3044  msg.value */\n      callvalue\n        /* \"UtilityBillTracker.sol\":3035:3062  msg.value >= bill.amountDue */\n      lt\n      iszero\n        /* \"UtilityBillTracker.sol\":3027:3108  require(msg.value >= bill.amountDue, \"Payment Failed: Insufficient amount sent.\") */\n      tag_47\n      jumpi\n      mload(0x40)\n      0x08c379a000000000000000000000000000000000000000000000000000000000\n      dup2\n      mstore\n      0x04\n      add\n      tag_48\n      swap1\n      tag_49\n      jump\t// in\n    tag_48:\n      mload(0x40)\n      dup1\n      swap2\n      sub\n      swap1\n      revert\n    tag_47:\n        /* \"UtilityBillTracker.sol\":3169:3173  true */\n      0x01\n        /* \"UtilityBillTracker.sol\":3155:3159  bill */\n      dup2\n        /* \"UtilityBillTracker.sol\":3155:3166  bill.isPaid */\n      0x04\n      add\n      0x00\n        /* \"UtilityBillTracker.sol\":3155:3173  bill.isPaid = true */\n      0x0100\n      exp\n      dup2\n      sload\n      dup2\n      0xff\n      mul\n      not\n      and\n      swap1\n      dup4\n      iszero\n      iszero\n      mul\n      or\n      swap1\n      sstore\n      pop\n        /* \"UtilityBillTracker.sol\":3200:3215  block.timestamp */\n      timestamp\n        /* \"UtilityBillTracker.sol\":3184:3188  bill */\n      dup2\n        /* \"UtilityBillTracker.sol\":3184:3197  bill.datePaid */\n      0x05\n      add\n        /* \"UtilityBillTracker.sol\":3184:3215  bill.datePaid = block.timestamp */\n      dup2\n      swap1\n      sstore\n      pop\n        /* \"UtilityBillTracker.sol\":3304:3316  bool success */\n      0x00\n        /* \"UtilityBillTracker.sol\":3322:3326  bill */\n      dup2\n        /* \"UtilityBillTracker.sol\":3322:3342  bill.utilityProvider */\n      0x01\n      add\n      0x00\n      swap1\n      sload\n      swap1\n      0x0100\n      exp\n      swap1\n      div\n      0xffffffffffffffffffffffffffffffffffffffff\n      and\n        /* \"UtilityBillTracker.sol\":3322:3347  bill.utilityProvider.call */\n      0xffffffffffffffffffffffffffffffffffffffff\n      and\n        /* \"UtilityBillTracker.sol\":3355:3359  bill */\n      dup3\n        /* \"UtilityBillTracker.sol\":3355:3369  bill.amountDue */\n      0x02\n      add\n      sload\n        /* \"UtilityBillTracker.sol\":3322:3374  bill.utilityProvider.call{value: bill.amountDue}(\"\") */\n      mload(0x40)\n      tag_50\n      swap1\n      tag_51\n      jump\t// in\n    tag_50:\n      0x00\n      mload(0x40)\n      dup1\n      dup4\n      sub\n      dup2\n      dup6\n      dup8\n      gas\n      call\n      swap3\n      pop\n      pop\n      pop\n      returndatasize\n      dup1\n      0x00\n      dup2\n      eq\n      tag_54\n      jumpi\n      mload(0x40)\n      swap2\n      pop\n      and(add(returndatasize, 0x3f), not(0x1f))\n      dup3\n      add\n      0x40\n      mstore\n      returndatasize\n      dup3\n      mstore\n      returndatasize\n      0x00\n      0x20\n      dup5\n      add\n      returndatacopy\n      jump(tag_53)\n    tag_54:\n      0x60\n      swap2\n      pop\n    tag_53:\n      pop\n        /* \"UtilityBillTracker.sol\":3303:3374  (bool success, ) = bill.utilityProvider.call{value: bill.amountDue}(\"\") */\n      pop\n      swap1\n      pop\n        /* \"UtilityBillTracker.sol\":3393:3400  success */\n      dup1\n        /* \"UtilityBillTracker.sol\":3385:3449  require(success, \"Payment Failed: Transfer to provider failed.\") */\n      tag_55\n      jumpi\n      mload(0x40)\n      0x08c379a000000000000000000000000000000000000000000000000000000000\n      dup2\n      mstore\n      0x04\n      add\n      tag_56\n      swap1\n      tag_57\n      jump\t// in\n    tag_56:\n      mload(0x40)\n      dup1\n      swap2\n      sub\n      swap1\n      revert\n    tag_55:\n        /* \"UtilityBillTracker.sol\":3550:3554  bill */\n      dup2\n        /* \"UtilityBillTracker.sol\":3550:3564  bill.amountDue */\n      0x02\n      add\n      sload\n        /* \"UtilityBillTracker.sol\":3538:3547  msg.value */\n      callvalue\n        /* \"UtilityBillTracker.sol\":3538:3564  msg.value > bill.amountDue */\n      gt\n        /* \"UtilityBillTracker.sol\":3534:3751  if (msg.value > bill.amountDue) {\r... */\n      iszero\n      tag_58\n      jumpi\n        /* \"UtilityBillTracker.sol\":3582:3600  bool refundSuccess */\n      0x00\n        /* \"UtilityBillTracker.sol\":3614:3624  msg.sender */\n      caller\n        /* \"UtilityBillTracker.sol\":3606:3630  payable(msg.sender).call */\n      0xffffffffffffffffffffffffffffffffffffffff\n      and\n        /* \"UtilityBillTracker.sol\":3650:3654  bill */\n      dup4\n        /* \"UtilityBillTracker.sol\":3650:3664  bill.amountDue */\n      0x02\n      add\n      sload\n        /* \"UtilityBillTracker.sol\":3638:3647  msg.value */\n      callvalue\n        /* \"UtilityBillTracker.sol\":3638:3664  msg.value - bill.amountDue */\n      tag_59\n      swap2\n      swap1\n      tag_60\n      jump\t// in\n    tag_59:\n        /* \"UtilityBillTracker.sol\":3606:3669  payable(msg.sender).call{value: msg.value - bill.amountDue}(\"\") */\n      mload(0x40)\n      tag_61\n      swap1\n      tag_51\n      jump\t// in\n    tag_61:\n      0x00\n      mload(0x40)\n      dup1\n      dup4\n      sub\n      dup2\n      dup6\n      dup8\n      gas\n      call\n      swap3\n      pop\n      pop\n      pop\n      returndatasize\n      dup1\n      0x00\n      dup2\n      eq\n      tag_64\n      jumpi\n      mload(0x40)\n      swap2\n      pop\n      and(add(returndatasize, 0x3f), not(0x1f))\n      dup3\n      add\n      0x40\n      mstore\n      returndatasize\n      dup3\n      mstore\n      returndatasize\n      0x00\n      0x20\n      dup5\n      add\n      returndatacopy\n      jump(tag_63)\n    tag_64:\n      0x60\n      swap2\n      pop\n    tag_63:\n      pop\n        /* \"UtilityBillTracker.sol\":3581:3669  (bool refundSuccess, ) = payable(msg.sender).call{value: msg.value - bill.amountDue}(\"\") */\n      pop\n      swap1\n      pop\n        /* \"UtilityBillTracker.sol\":3692:3705  refundSuccess */\n      dup1\n        /* \"UtilityBillTracker.sol\":3684:3739  require(refundSuccess, \"Payment Error: Refund failed.\") */\n      tag_65\n      jumpi\n      mload(0x40)\n      0x08c379a000000000000000000000000000000000000000000000000000000000\n      dup2\n      mstore\n      0x04\n      add\n      tag_66\n      swap1\n      tag_67\n      jump\t// in\n    tag_66:\n      mload(0x40)\n      dup1\n      swap2\n      sub\n      swap1\n      revert\n    tag_65:\n        /* \"UtilityBillTracker.sol\":3534:3751  if (msg.value > bill.amountDue) {\r... */\n      pop\n    tag_58:\n        /* \"UtilityBillTracker.sol\":3786:3796  msg.sender */\n      caller\n        /* \"UtilityBillTracker.sol\":3768:3828  BillPaid(_billID, msg.sender, bill.amountDue, bill.datePaid) */\n      0xffffffffffffffffffffffffffffffffffffffff\n      and\n        /* \"UtilityBillTracker.sol\":3777:3784  _billID */\n      dup4\n        /* \"UtilityBillTracker.sol\":3768:3828  BillPaid(_billID, msg.sender, bill.amountDue, bill.datePaid) */\n      0x53646f88205e1dd1de6fdaa8898d840fbe17129cb98729533d3c83a3a0e6045a\n        /* \"UtilityBillTracker.sol\":3798:3802  bill */\n      dup5\n        /* \"UtilityBillTracker.sol\":3798:3812  bill.amountDue */\n      0x02\n      add\n      sload\n        /* \"UtilityBillTracker.sol\":3814:3818  bill */\n      dup6\n        /* \"UtilityBillTracker.sol\":3814:3827  bill.datePaid */\n      0x05\n      add\n      sload\n        /* \"UtilityBillTracker.sol\":3768:3828  BillPaid(_billID, msg.sender, bill.amountDue, bill.datePaid) */\n      mload(0x40)\n      tag_68\n      swap3\n      swap2\n      swap1\n      tag_35\n      jump\t// in\n    tag_68:\n      mload(0x40)\n      dup1\n      swap2\n      sub\n      swap1\n      log3\n        /* \"UtilityBillTracker.sol\":2655:3836  function payBill(uint _billID) public payable {\r... */\n      pop\n      pop\n      pop\n      jump\t// out\n        /* \"#utility.yul\":7:162   */\n    tag_70:\n      0x00\n        /* \"#utility.yul\":99:105   */\n      dup2\n        /* \"#utility.yul\":86:106   */\n      calldataload\n        /* \"#utility.yul\":77:106   */\n      swap1\n      pop\n        /* \"#utility.yul\":115:156   */\n      tag_72\n        /* \"#utility.yul\":150:155   */\n      dup2\n        /* \"#utility.yul\":115:156   */\n      tag_73\n      jump\t// in\n    tag_72:\n        /* \"#utility.yul\":67:162   */\n      swap3\n      swap2\n      pop\n      pop\n      jump\t// out\n        /* \"#utility.yul\":168:307   */\n    tag_74:\n      0x00\n        /* \"#utility.yul\":252:258   */\n      dup2\n        /* \"#utility.yul\":239:259   */\n      calldataload\n        /* \"#utility.yul\":230:259   */\n      swap1\n      pop\n        /* \"#utility.yul\":268:301   */\n      tag_76\n        /* \"#utility.yul\":295:300   */\n      dup2\n        /* \"#utility.yul\":268:301   */\n      tag_77\n      jump\t// in\n    tag_76:\n        /* \"#utility.yul\":220:307   */\n      swap3\n      swap2\n      pop\n      pop\n      jump\t// out\n        /* \"#utility.yul\":313:881   */\n    tag_16:\n      0x00\n      dup1\n      0x00\n        /* \"#utility.yul\":463:465   */\n      0x60\n        /* \"#utility.yul\":451:460   */\n      dup5\n        /* \"#utility.yul\":442:449   */\n      dup7\n        /* \"#utility.yul\":438:461   */\n      sub\n        /* \"#utility.yul\":434:466   */\n      slt\n        /* \"#utility.yul\":431:433   */\n      iszero\n      tag_79\n      jumpi\n        /* \"#utility.yul\":479:480   */\n      0x00\n        /* \"#utility.yul\":476:477   */\n      dup1\n        /* \"#utility.yul\":469:481   */\n      revert\n        /* \"#utility.yul\":431:433   */\n    tag_79:\n        /* \"#utility.yul\":522:523   */\n      0x00\n        /* \"#utility.yul\":547:608   */\n      tag_80\n        /* \"#utility.yul\":600:607   */\n      dup7\n        /* \"#utility.yul\":591:597   */\n      dup3\n        /* \"#utility.yul\":580:589   */\n      dup8\n        /* \"#utility.yul\":576:598   */\n      add\n        /* \"#utility.yul\":547:608   */\n      tag_70\n      jump\t// in\n    tag_80:\n        /* \"#utility.yul\":537:608   */\n      swap4\n      pop\n        /* \"#utility.yul\":493:618   */\n      pop\n        /* \"#utility.yul\":657:659   */\n      0x20\n        /* \"#utility.yul\":683:736   */\n      tag_81\n        /* \"#utility.yul\":728:735   */\n      dup7\n        /* \"#utility.yul\":719:725   */\n      dup3\n        /* \"#utility.yul\":708:717   */\n      dup8\n        /* \"#utility.yul\":704:726   */\n      add\n        /* \"#utility.yul\":683:736   */\n      tag_74\n      jump\t// in\n    tag_81:\n        /* \"#utility.yul\":673:736   */\n      swap3\n      pop\n        /* \"#utility.yul\":628:746   */\n      pop\n        /* \"#utility.yul\":785:787   */\n      0x40\n        /* \"#utility.yul\":811:864   */\n      tag_82\n        /* \"#utility.yul\":856:863   */\n      dup7\n        /* \"#utility.yul\":847:853   */\n      dup3\n        /* \"#utility.yul\":836:845   */\n      dup8\n        /* \"#utility.yul\":832:854   */\n      add\n        /* \"#utility.yul\":811:864   */\n      tag_74\n      jump\t// in\n    tag_82:\n        /* \"#utility.yul\":801:864   */\n      swap2\n      pop\n        /* \"#utility.yul\":756:874   */\n      pop\n        /* \"#utility.yul\":421:881   */\n      swap3\n      pop\n      swap3\n      pop\n      swap3\n      jump\t// out\n        /* \"#utility.yul\":887:1149   */\n    tag_9:\n      0x00\n        /* \"#utility.yul\":995:997   */\n      0x20\n        /* \"#utility.yul\":983:992   */\n      dup3\n        /* \"#utility.yul\":974:981   */\n      dup5\n        /* \"#utility.yul\":970:993   */\n      sub\n        /* \"#utility.yul\":966:998   */\n      slt\n        /* \"#utility.yul\":963:965   */\n      iszero\n      tag_84\n      jumpi\n        /* \"#utility.yul\":1011:1012   */\n      0x00\n        /* \"#utility.yul\":1008:1009   */\n      dup1\n        /* \"#utility.yul\":1001:1013   */\n      revert\n        /* \"#utility.yul\":963:965   */\n    tag_84:\n        /* \"#utility.yul\":1054:1055   */\n      0x00\n        /* \"#utility.yul\":1079:1132   */\n      tag_85\n        /* \"#utility.yul\":1124:1131   */\n      dup5\n        /* \"#utility.yul\":1115:1121   */\n      dup3\n        /* \"#utility.yul\":1104:1113   */\n      dup6\n        /* \"#utility.yul\":1100:1122   */\n      add\n        /* \"#utility.yul\":1079:1132   */\n      tag_74\n      jump\t// in\n    tag_85:\n        /* \"#utility.yul\":1069:1132   */\n      swap2\n      pop\n        /* \"#utility.yul\":1025:1142   */\n      pop\n        /* \"#utility.yul\":953:1149   */\n      swap3\n      swap2\n      pop\n      pop\n      jump\t// out\n        /* \"#utility.yul\":1155:1297   */\n    tag_86:\n        /* \"#utility.yul\":1258:1290   */\n      tag_88\n        /* \"#utility.yul\":1284:1289   */\n      dup2\n        /* \"#utility.yul\":1258:1290   */\n      tag_89\n      jump\t// in\n    tag_88:\n        /* \"#utility.yul\":1253:1256   */\n      dup3\n        /* \"#utility.yul\":1246:1291   */\n      mstore\n        /* \"#utility.yul\":1236:1297   */\n      pop\n      pop\n      jump\t// out\n        /* \"#utility.yul\":1303:1412   */\n    tag_90:\n        /* \"#utility.yul\":1384:1405   */\n      tag_92\n        /* \"#utility.yul\":1399:1404   */\n      dup2\n        /* \"#utility.yul\":1384:1405   */\n      tag_93\n      jump\t// in\n    tag_92:\n        /* \"#utility.yul\":1379:1382   */\n      dup3\n        /* \"#utility.yul\":1372:1406   */\n      mstore\n        /* \"#utility.yul\":1362:1412   */\n      pop\n      pop\n      jump\t// out\n        /* \"#utility.yul\":1418:1745   */\n    tag_94:\n      0x00\n        /* \"#utility.yul\":1581:1648   */\n      tag_96\n        /* \"#utility.yul\":1645:1647   */\n      0x1d\n        /* \"#utility.yul\":1640:1643   */\n      dup4\n        /* \"#utility.yul\":1581:1648   */\n      tag_97\n      jump\t// in\n    tag_96:\n        /* \"#utility.yul\":1574:1648   */\n      swap2\n      pop\n        /* \"#utility.yul\":1678:1709   */\n      0x5061796d656e74204572726f723a20526566756e64206661696c65642e000000\n        /* \"#utility.yul\":1674:1675   */\n      0x00\n        /* \"#utility.yul\":1669:1672   */\n      dup4\n        /* \"#utility.yul\":1665:1676   */\n      add\n        /* \"#utility.yul\":1658:1710   */\n      mstore\n        /* \"#utility.yul\":1736:1738   */\n      0x20\n        /* \"#utility.yul\":1731:1734   */\n      dup3\n        /* \"#utility.yul\":1727:1739   */\n      add\n        /* \"#utility.yul\":1720:1739   */\n      swap1\n      pop\n        /* \"#utility.yul\":1564:1745   */\n      swap2\n      swap1\n      pop\n      jump\t// out\n        /* \"#utility.yul\":1751:2079   */\n    tag_98:\n      0x00\n        /* \"#utility.yul\":1914:1981   */\n      tag_100\n        /* \"#utility.yul\":1978:1980   */\n      0x1e\n        /* \"#utility.yul\":1973:1976   */\n      dup4\n        /* \"#utility.yul\":1914:1981   */\n      tag_97\n      jump\t// in\n    tag_100:\n        /* \"#utility.yul\":1907:1981   */\n      swap2\n      pop\n        /* \"#utility.yul\":2011:2043   */\n      0x4572726f723a2042696c6c20494420646f6573206e6f742065786973742e0000\n        /* \"#utility.yul\":2007:2008   */\n      0x00\n        /* \"#utility.yul\":2002:2005   */\n      dup4\n        /* \"#utility.yul\":1998:2009   */\n      add\n        /* \"#utility.yul\":1991:2044   */\n      mstore\n        /* \"#utility.yul\":2070:2072   */\n      0x20\n        /* \"#utility.yul\":2065:2068   */\n      dup3\n        /* \"#utility.yul\":2061:2073   */\n      add\n        /* \"#utility.yul\":2054:2073   */\n      swap1\n      pop\n        /* \"#utility.yul\":1897:2079   */\n      swap2\n      swap1\n      pop\n      jump\t// out\n        /* \"#utility.yul\":2085:2458   */\n    tag_101:\n      0x00\n        /* \"#utility.yul\":2248:2315   */\n      tag_103\n        /* \"#utility.yul\":2312:2314   */\n      0x29\n        /* \"#utility.yul\":2307:2310   */\n      dup4\n        /* \"#utility.yul\":2248:2315   */\n      tag_97\n      jump\t// in\n    tag_103:\n        /* \"#utility.yul\":2241:2315   */\n      swap2\n      pop\n        /* \"#utility.yul\":2345:2379   */\n      0x5061796d656e74204661696c65643a20496e73756666696369656e7420616d6f\n        /* \"#utility.yul\":2341:2342   */\n      0x00\n        /* \"#utility.yul\":2336:2339   */\n      dup4\n        /* \"#utility.yul\":2332:2343   */\n      add\n        /* \"#utility.yul\":2325:2380   */\n      mstore\n        /* \"#utility.yul\":2411:2422   */\n      0x756e742073656e742e0000000000000000000000000000000000000000000000\n        /* \"#utility.yul\":2406:2408   */\n      0x20\n        /* \"#utility.yul\":2401:2404   */\n      dup4\n        /* \"#utility.yul\":2397:2409   */\n      add\n        /* \"#utility.yul\":2390:2423   */\n      mstore\n        /* \"#utility.yul\":2449:2451   */\n      0x40\n        /* \"#utility.yul\":2444:2447   */\n      dup3\n        /* \"#utility.yul\":2440:2452   */\n      add\n        /* \"#utility.yul\":2433:2452   */\n      swap1\n      pop\n        /* \"#utility.yul\":2231:2458   */\n      swap2\n      swap1\n      pop\n      jump\t// out\n        /* \"#utility.yul\":2464:2851   */\n    tag_104:\n      0x00\n        /* \"#utility.yul\":2627:2694   */\n      tag_106\n        /* \"#utility.yul\":2691:2693   */\n      0x37\n        /* \"#utility.yul\":2686:2689   */\n      dup4\n        /* \"#utility.yul\":2627:2694   */\n      tag_97\n      jump\t// in\n    tag_106:\n        /* \"#utility.yul\":2620:2694   */\n      swap2\n      pop\n        /* \"#utility.yul\":2724:2758   */\n      0x5061796d656e74204661696c65643a20596f7520617265206e6f742074686520\n        /* \"#utility.yul\":2720:2721   */\n      0x00\n        /* \"#utility.yul\":2715:2718   */\n      dup4\n        /* \"#utility.yul\":2711:2722   */\n      add\n        /* \"#utility.yul\":2704:2759   */\n      mstore\n        /* \"#utility.yul\":2790:2815   */\n      0x636f6e73756d657220666f7220746869732062696c6c2e000000000000000000\n        /* \"#utility.yul\":2785:2787   */\n      0x20\n        /* \"#utility.yul\":2780:2783   */\n      dup4\n        /* \"#utility.yul\":2776:2788   */\n      add\n        /* \"#utility.yul\":2769:2816   */\n      mstore\n        /* \"#utility.yul\":2842:2844   */\n      0x40\n        /* \"#utility.yul\":2837:2840   */\n      dup3\n        /* \"#utility.yul\":2833:2845   */\n      add\n        /* \"#utility.yul\":2826:2845   */\n      swap1\n      pop\n        /* \"#utility.yul\":2610:2851   */\n      swap2\n      swap1\n      pop\n      jump\t// out\n        /* \"#utility.yul\":2857:3245   */\n    tag_107:\n      0x00\n        /* \"#utility.yul\":3020:3087   */\n      tag_109\n        /* \"#utility.yul\":3084:3086   */\n      0x38\n        /* \"#utility.yul\":3079:3082   */\n      dup4\n        /* \"#utility.yul\":3020:3087   */\n      tag_97\n      jump\t// in\n    tag_109:\n        /* \"#utility.yul\":3013:3087   */\n      swap2\n      pop\n        /* \"#utility.yul\":3117:3151   */\n      0x4163636573733a204f6e6c7920746865205574696c6974792050726f76696465\n        /* \"#utility.yul\":3113:3114   */\n      0x00\n        /* \"#utility.yul\":3108:3111   */\n      dup4\n        /* \"#utility.yul\":3104:3115   */\n      add\n        /* \"#utility.yul\":3097:3152   */\n      mstore\n        /* \"#utility.yul\":3183:3209   */\n      0x7220284f776e6572292063616e2063616c6c20746869732e0000000000000000\n        /* \"#utility.yul\":3178:3180   */\n      0x20\n        /* \"#utility.yul\":3173:3176   */\n      dup4\n        /* \"#utility.yul\":3169:3181   */\n      add\n        /* \"#utility.yul\":3162:3210   */\n      mstore\n        /* \"#utility.yul\":3236:3238   */\n      0x40\n        /* \"#utility.yul\":3231:3234   */\n      dup3\n        /* \"#utility.yul\":3227:3239   */\n      add\n        /* \"#utility.yul\":3220:3239   */\n      swap1\n      pop\n        /* \"#utility.yul\":3003:3245   */\n      swap2\n      swap1\n      pop\n      jump\t// out\n        /* \"#utility.yul\":3251:3548   */\n    tag_110:\n      0x00\n        /* \"#utility.yul\":3431:3514   */\n      tag_112\n        /* \"#utility.yul\":3512:3513   */\n      0x00\n        /* \"#utility.yul\":3507:3510   */\n      dup4\n        /* \"#utility.yul\":3431:3514   */\n      tag_113\n      jump\t// in\n    tag_112:\n        /* \"#utility.yul\":3424:3514   */\n      swap2\n      pop\n        /* \"#utility.yul\":3540:3541   */\n      0x00\n        /* \"#utility.yul\":3535:3538   */\n      dup3\n        /* \"#utility.yul\":3531:3542   */\n      add\n        /* \"#utility.yul\":3524:3542   */\n      swap1\n      pop\n        /* \"#utility.yul\":3414:3548   */\n      swap2\n      swap1\n      pop\n      jump\t// out\n        /* \"#utility.yul\":3554:3923   */\n    tag_114:\n      0x00\n        /* \"#utility.yul\":3717:3784   */\n      tag_116\n        /* \"#utility.yul\":3781:3783   */\n      0x25\n        /* \"#utility.yul\":3776:3779   */\n      dup4\n        /* \"#utility.yul\":3717:3784   */\n      tag_97\n      jump\t// in\n    tag_116:\n        /* \"#utility.yul\":3710:3784   */\n      swap2\n      pop\n        /* \"#utility.yul\":3814:3848   */\n      0x5061796d656e74204661696c65643a2042696c6c20697320616c726561647920\n        /* \"#utility.yul\":3810:3811   */\n      0x00\n        /* \"#utility.yul\":3805:3808   */\n      dup4\n        /* \"#utility.yul\":3801:3812   */\n      add\n        /* \"#utility.yul\":3794:3849   */\n      mstore\n        /* \"#utility.yul\":3880:3887   */\n      0x706169642e000000000000000000000000000000000000000000000000000000\n        /* \"#utility.yul\":3875:3877   */\n      0x20\n        /* \"#utility.yul\":3870:3873   */\n      dup4\n        /* \"#utility.yul\":3866:3878   */\n      add\n        /* \"#utility.yul\":3859:3888   */\n      mstore\n        /* \"#utility.yul\":3914:3916   */\n      0x40\n        /* \"#utility.yul\":3909:3912   */\n      dup3\n        /* \"#utility.yul\":3905:3917   */\n      add\n        /* \"#utility.yul\":3898:3917   */\n      swap1\n      pop\n        /* \"#utility.yul\":3700:3923   */\n      swap2\n      swap1\n      pop\n      jump\t// out\n        /* \"#utility.yul\":3929:4305   */\n    tag_117:\n      0x00\n        /* \"#utility.yul\":4092:4159   */\n      tag_119\n        /* \"#utility.yul\":4156:4158   */\n      0x2c\n        /* \"#utility.yul\":4151:4154   */\n      dup4\n        /* \"#utility.yul\":4092:4159   */\n      tag_97\n      jump\t// in\n    tag_119:\n        /* \"#utility.yul\":4085:4159   */\n      swap2\n      pop\n        /* \"#utility.yul\":4189:4223   */\n      0x5061796d656e74204661696c65643a205472616e7366657220746f2070726f76\n        /* \"#utility.yul\":4185:4186   */\n      0x00\n        /* \"#utility.yul\":4180:4183   */\n      dup4\n        /* \"#utility.yul\":4176:4187   */\n      add\n        /* \"#utility.yul\":4169:4224   */\n      mstore\n        /* \"#utility.yul\":4255:4269   */\n      0x69646572206661696c65642e0000000000000000000000000000000000000000\n        /* \"#utility.yul\":4250:4252   */\n      0x20\n        /* \"#utility.yul\":4245:4248   */\n      dup4\n        /* \"#utility.yul\":4241:4253   */\n      add\n        /* \"#utility.yul\":4234:4270   */\n      mstore\n        /* \"#utility.yul\":4296:4298   */\n      0x40\n        /* \"#utility.yul\":4291:4294   */\n      dup3\n        /* \"#utility.yul\":4287:4299   */\n      add\n        /* \"#utility.yul\":4280:4299   */\n      swap1\n      pop\n        /* \"#utility.yul\":4075:4305   */\n      swap2\n      swap1\n      pop\n      jump\t// out\n        /* \"#utility.yul\":4311:4429   */\n    tag_120:\n        /* \"#utility.yul\":4398:4422   */\n      tag_122\n        /* \"#utility.yul\":4416:4421   */\n      dup2\n        /* \"#utility.yul\":4398:4422   */\n      tag_123\n      jump\t// in\n    tag_122:\n        /* \"#utility.yul\":4393:4396   */\n      dup3\n        /* \"#utility.yul\":4386:4423   */\n      mstore\n        /* \"#utility.yul\":4376:4429   */\n      pop\n      pop\n      jump\t// out\n        /* \"#utility.yul\":4435:4814   */\n    tag_51:\n      0x00\n        /* \"#utility.yul\":4641:4788   */\n      tag_125\n        /* \"#utility.yul\":4784:4787   */\n      dup3\n        /* \"#utility.yul\":4641:4788   */\n      tag_110\n      jump\t// in\n    tag_125:\n        /* \"#utility.yul\":4634:4788   */\n      swap2\n      pop\n        /* \"#utility.yul\":4805:4808   */\n      dup2\n        /* \"#utility.yul\":4798:4808   */\n      swap1\n      pop\n        /* \"#utility.yul\":4623:4814   */\n      swap2\n      swap1\n      pop\n      jump\t// out\n        /* \"#utility.yul\":4820:5647   */\n    tag_12:\n      0x00\n        /* \"#utility.yul\":5117:5120   */\n      0xc0\n        /* \"#utility.yul\":5106:5115   */\n      dup3\n        /* \"#utility.yul\":5102:5121   */\n      add\n        /* \"#utility.yul\":5094:5121   */\n      swap1\n      pop\n        /* \"#utility.yul\":5131:5218   */\n      tag_127\n        /* \"#utility.yul\":5215:5216   */\n      0x00\n        /* \"#utility.yul\":5204:5213   */\n      dup4\n        /* \"#utility.yul\":5200:5217   */\n      add\n        /* \"#utility.yul\":5191:5197   */\n      dup10\n        /* \"#utility.yul\":5131:5218   */\n      tag_86\n      jump\t// in\n    tag_127:\n        /* \"#utility.yul\":5228:5316   */\n      tag_128\n        /* \"#utility.yul\":5312:5314   */\n      0x20\n        /* \"#utility.yul\":5301:5310   */\n      dup4\n        /* \"#utility.yul\":5297:5315   */\n      add\n        /* \"#utility.yul\":5288:5294   */\n      dup9\n        /* \"#utility.yul\":5228:5316   */\n      tag_86\n      jump\t// in\n    tag_128:\n        /* \"#utility.yul\":5326:5398   */\n      tag_129\n        /* \"#utility.yul\":5394:5396   */\n      0x40\n        /* \"#utility.yul\":5383:5392   */\n      dup4\n        /* \"#utility.yul\":5379:5397   */\n      add\n        /* \"#utility.yul\":5370:5376   */\n      dup8\n        /* \"#utility.yul\":5326:5398   */\n      tag_120\n      jump\t// in\n    tag_129:\n        /* \"#utility.yul\":5408:5480   */\n      tag_130\n        /* \"#utility.yul\":5476:5478   */\n      0x60\n        /* \"#utility.yul\":5465:5474   */\n      dup4\n        /* \"#utility.yul\":5461:5479   */\n      add\n        /* \"#utility.yul\":5452:5458   */\n      dup7\n        /* \"#utility.yul\":5408:5480   */\n      tag_120\n      jump\t// in\n    tag_130:\n        /* \"#utility.yul\":5490:5557   */\n      tag_131\n        /* \"#utility.yul\":5552:5555   */\n      0x80\n        /* \"#utility.yul\":5541:5550   */\n      dup4\n        /* \"#utility.yul\":5537:5556   */\n      add\n        /* \"#utility.yul\":5528:5534   */\n      dup6\n        /* \"#utility.yul\":5490:5557   */\n      tag_90\n      jump\t// in\n    tag_131:\n        /* \"#utility.yul\":5567:5640   */\n      tag_132\n        /* \"#utility.yul\":5635:5638   */\n      0xa0\n        /* \"#utility.yul\":5624:5633   */\n      dup4\n        /* \"#utility.yul\":5620:5639   */\n      add\n        /* \"#utility.yul\":5611:5617   */\n      dup5\n        /* \"#utility.yul\":5567:5640   */\n      tag_120\n      jump\t// in\n    tag_132:\n        /* \"#utility.yul\":5084:5647   */\n      swap8\n      swap7\n      pop\n      pop\n      pop\n      pop\n      pop\n      pop\n      pop\n      jump\t// out\n        /* \"#utility.yul\":5653:5863   */\n    tag_23:\n      0x00\n        /* \"#utility.yul\":5778:5780   */\n      0x20\n        /* \"#utility.yul\":5767:5776   */\n      dup3\n        /* \"#utility.yul\":5763:5781   */\n      add\n        /* \"#utility.yul\":5755:5781   */\n      swap1\n      pop\n        /* \"#utility.yul\":5791:5856   */\n      tag_134\n        /* \"#utility.yul\":5853:5854   */\n      0x00\n        /* \"#utility.yul\":5842:5851   */\n      dup4\n        /* \"#utility.yul\":5838:5855   */\n      add\n        /* \"#utility.yul\":5829:5835   */\n      dup5\n        /* \"#utility.yul\":5791:5856   */\n      tag_90\n      jump\t// in\n    tag_134:\n        /* \"#utility.yul\":5745:5863   */\n      swap3\n      swap2\n      pop\n      pop\n      jump\t// out\n        /* \"#utility.yul\":5869:6288   */\n    tag_67:\n      0x00\n        /* \"#utility.yul\":6073:6075   */\n      0x20\n        /* \"#utility.yul\":6062:6071   */\n      dup3\n        /* \"#utility.yul\":6058:6076   */\n      add\n        /* \"#utility.yul\":6050:6076   */\n      swap1\n      pop\n        /* \"#utility.yul\":6122:6131   */\n      dup2\n        /* \"#utility.yul\":6116:6120   */\n      dup2\n        /* \"#utility.yul\":6112:6132   */\n      sub\n        /* \"#utility.yul\":6108:6109   */\n      0x00\n        /* \"#utility.yul\":6097:6106   */\n      dup4\n        /* \"#utility.yul\":6093:6110   */\n      add\n        /* \"#utility.yul\":6086:6133   */\n      mstore\n        /* \"#utility.yul\":6150:6281   */\n      tag_136\n        /* \"#utility.yul\":6276:6280   */\n      dup2\n        /* \"#utility.yul\":6150:6281   */\n      tag_94\n      jump\t// in\n    tag_136:\n        /* \"#utility.yul\":6142:6281   */\n      swap1\n      pop\n        /* \"#utility.yul\":6040:6288   */\n      swap2\n      swap1\n      pop\n      jump\t// out\n        /* \"#utility.yul\":6294:6713   */\n    tag_39:\n      0x00\n        /* \"#utility.yul\":6498:6500   */\n      0x20\n        /* \"#utility.yul\":6487:6496   */\n      dup3\n        /* \"#utility.yul\":6483:6501   */\n      add\n        /* \"#utility.yul\":6475:6501   */\n      swap1\n      pop\n        /* \"#utility.yul\":6547:6556   */\n      dup2\n        /* \"#utility.yul\":6541:6545   */\n      dup2\n        /* \"#utility.yul\":6537:6557   */\n      sub\n        /* \"#utility.yul\":6533:6534   */\n      0x00\n        /* \"#utility.yul\":6522:6531   */\n      dup4\n        /* \"#utility.yul\":6518:6535   */\n      add\n        /* \"#utility.yul\":6511:6558   */\n      mstore\n        /* \"#utility.yul\":6575:6706   */\n      tag_138\n        /* \"#utility.yul\":6701:6705   */\n      dup2\n        /* \"#utility.yul\":6575:6706   */\n      tag_98\n      jump\t// in\n    tag_138:\n        /* \"#utility.yul\":6567:6706   */\n      swap1\n      pop\n        /* \"#utility.yul\":6465:6713   */\n      swap2\n      swap1\n      pop\n      jump\t// out\n        /* \"#utility.yul\":6719:7138   */\n    tag_49:\n      0x00\n        /* \"#utility.yul\":6923:6925   */\n      0x20\n        /* \"#utility.yul\":6912:6921   */\n      dup3\n        /* \"#utility.yul\":6908:6926   */\n      add\n        /* \"#utility.yul\":6900:6926   */\n      swap1\n      pop\n        /* \"#utility.yul\":6972:6981   */\n      dup2\n        /* \"#utility.yul\":6966:6970   */\n      dup2\n        /* \"#utility.yul\":6962:6982   */\n      sub\n        /* \"#utility.yul\":6958:6959   */\n      0x00\n        /* \"#utility.yul\":6947:6956   */\n      dup4\n        /* \"#utility.yul\":6943:6960   */\n      add\n        /* \"#utility.yul\":6936:6983   */\n      mstore\n        /* \"#utility.yul\":7000:7131   */\n      tag_140\n        /* \"#utility.yul\":7126:7130   */\n      dup2\n        /* \"#utility.yul\":7000:7131   */\n      tag_101\n      jump\t// in\n    tag_140:\n        /* \"#utility.yul\":6992:7131   */\n      swap1\n      pop\n        /* \"#utility.yul\":6890:7138   */\n      swap2\n      swap1\n      pop\n      jump\t// out\n        /* \"#utility.yul\":7144:7563   */\n    tag_43:\n      0x00\n        /* \"#utility.yul\":7348:7350   */\n      0x20\n        /* \"#utility.yul\":7337:7346   */\n      dup3\n        /* \"#utility.yul\":7333:7351   */\n      add\n        /* \"#utility.yul\":7325:7351   */\n      swap1\n      pop\n        /* \"#utility.yul\":7397:7406   */\n      dup2\n        /* \"#utility.yul\":7391:7395   */\n      dup2\n        /* \"#utility.yul\":7387:7407   */\n      sub\n        /* \"#utility.yul\":7383:7384   */\n      0x00\n        /* \"#utility.yul\":7372:7381   */\n      dup4\n        /* \"#utility.yul\":7368:7385   */\n      add\n        /* \"#utility.yul\":7361:7408   */\n      mstore\n        /* \"#utility.yul\":7425:7556   */\n      tag_142\n        /* \"#utility.yul\":7551:7555   */\n      dup2\n        /* \"#utility.yul\":7425:7556   */\n      tag_104\n      jump\t// in\n    tag_142:\n        /* \"#utility.yul\":7417:7556   */\n      swap1\n      pop\n        /* \"#utility.yul\":7315:7563   */\n      swap2\n      swap1\n      pop\n      jump\t// out\n        /* \"#utility.yul\":7569:7988   */\n    tag_30:\n      0x00\n        /* \"#utility.yul\":7773:7775   */\n      0x20\n        /* \"#utility.yul\":7762:7771   */\n      dup3\n        /* \"#utility.yul\":7758:7776   */\n      add\n        /* \"#utility.yul\":7750:7776   */\n      swap1\n      pop\n        /* \"#utility.yul\":7822:7831   */\n      dup2\n        /* \"#utility.yul\":7816:7820   */\n      dup2\n        /* \"#utility.yul\":7812:7832   */\n      sub\n        /* \"#utility.yul\":7808:7809   */\n      0x00\n        /* \"#utility.yul\":7797:7806   */\n      dup4\n        /* \"#utility.yul\":7793:7810   */\n      add\n        /* \"#utility.yul\":7786:7833   */\n      mstore\n        /* \"#utility.yul\":7850:7981   */\n      tag_144\n        /* \"#utility.yul\":7976:7980   */\n      dup2\n        /* \"#utility.yul\":7850:7981   */\n      tag_107\n      jump\t// in\n    tag_144:\n        /* \"#utility.yul\":7842:7981   */\n      swap1\n      pop\n        /* \"#utility.yul\":7740:7988   */\n      swap2\n      swap1\n      pop\n      jump\t// out\n        /* \"#utility.yul\":7994:8413   */\n    tag_46:\n      0x00\n        /* \"#utility.yul\":8198:8200   */\n      0x20\n        /* \"#utility.yul\":8187:8196   */\n      dup3\n        /* \"#utility.yul\":8183:8201   */\n      add\n        /* \"#utility.yul\":8175:8201   */\n      swap1\n      pop\n        /* \"#utility.yul\":8247:8256   */\n      dup2\n        /* \"#utility.yul\":8241:8245   */\n      dup2\n        /* \"#utility.yul\":8237:8257   */\n      sub\n        /* \"#utility.yul\":8233:8234   */\n      0x00\n        /* \"#utility.yul\":8222:8231   */\n      dup4\n        /* \"#utility.yul\":8218:8235   */\n      add\n        /* \"#utility.yul\":8211:8258   */\n      mstore\n        /* \"#utility.yul\":8275:8406   */\n      tag_146\n        /* \"#utility.yul\":8401:8405   */\n      dup2\n        /* \"#utility.yul\":8275:8406   */\n      tag_114\n      jump\t// in\n    tag_146:\n        /* \"#utility.yul\":8267:8406   */\n      swap1\n      pop\n        /* \"#utility.yul\":8165:8413   */\n      swap2\n      swap1\n      pop\n      jump\t// out\n        /* \"#utility.yul\":8419:8838   */\n    tag_57:\n      0x00\n        /* \"#utility.yul\":8623:8625   */\n      0x20\n        /* \"#utility.yul\":8612:8621   */\n      dup3\n        /* \"#utility.yul\":8608:8626   */\n      add\n        /* \"#utility.yul\":8600:8626   */\n      swap1\n      pop\n        /* \"#utility.yul\":8672:8681   */\n      dup2\n        /* \"#utility.yul\":8666:8670   */\n      dup2\n        /* \"#utility.yul\":8662:8682   */\n      sub\n        /* \"#utility.yul\":8658:8659   */\n      0x00\n        /* \"#utility.yul\":8647:8656   */\n      dup4\n        /* \"#utility.yul\":8643:8660   */\n      add\n        /* \"#utility.yul\":8636:8683   */\n      mstore\n        /* \"#utility.yul\":8700:8831   */\n      tag_148\n        /* \"#utility.yul\":8826:8830   */\n      dup2\n        /* \"#utility.yul\":8700:8831   */\n      tag_117\n      jump\t// in\n    tag_148:\n        /* \"#utility.yul\":8692:8831   */\n      swap1\n      pop\n        /* \"#utility.yul\":8590:8838   */\n      swap2\n      swap1\n      pop\n      jump\t// out\n        /* \"#utility.yul\":8844:9176   */\n    tag_35:\n      0x00\n        /* \"#utility.yul\":9003:9005   */\n      0x40\n        /* \"#utility.yul\":8992:9001   */\n      dup3\n        /* \"#utility.yul\":8988:9006   */\n      add\n        /* \"#utility.yul\":8980:9006   */\n      swap1\n      pop\n        /* \"#utility.yul\":9016:9087   */\n      tag_150\n        /* \"#utility.yul\":9084:9085   */\n      0x00\n        /* \"#utility.yul\":9073:9082   */\n      dup4\n        /* \"#utility.yul\":9069:9086   */\n      add\n        /* \"#utility.yul\":9060:9066   */\n      dup6\n        /* \"#utility.yul\":9016:9087   */\n      tag_120\n      jump\t// in\n    tag_150:\n        /* \"#utility.yul\":9097:9169   */\n      tag_151\n        /* \"#utility.yul\":9165:9167   */\n      0x20\n        /* \"#utility.yul\":9154:9163   */\n      dup4\n        /* \"#utility.yul\":9150:9168   */\n      add\n        /* \"#utility.yul\":9141:9147   */\n      dup5\n        /* \"#utility.yul\":9097:9169   */\n      tag_120\n      jump\t// in\n    tag_151:\n        /* \"#utility.yul\":8970:9176   */\n      swap4\n      swap3\n      pop\n      pop\n      pop\n      jump\t// out\n        /* \"#utility.yul\":9182:9329   */\n    tag_113:\n      0x00\n        /* \"#utility.yul\":9320:9323   */\n      dup2\n        /* \"#utility.yul\":9305:9323   */\n      swap1\n      pop\n        /* \"#utility.yul\":9295:9329   */\n      swap3\n      swap2\n      pop\n      pop\n      jump\t// out\n        /* \"#utility.yul\":9335:9504   */\n    tag_97:\n      0x00\n        /* \"#utility.yul\":9453:9459   */\n      dup3\n        /* \"#utility.yul\":9448:9451   */\n      dup3\n        /* \"#utility.yul\":9441:9460   */\n      mstore\n        /* \"#utility.yul\":9493:9497   */\n      0x20\n        /* \"#utility.yul\":9488:9491   */\n      dup3\n        /* \"#utility.yul\":9484:9498   */\n      add\n        /* \"#utility.yul\":9469:9498   */\n      swap1\n      pop\n        /* \"#utility.yul\":9431:9504   */\n      swap3\n      swap2\n      pop\n      pop\n      jump\t// out\n        /* \"#utility.yul\":9510:9701   */\n    tag_60:\n      0x00\n        /* \"#utility.yul\":9570:9590   */\n      tag_155\n        /* \"#utility.yul\":9588:9589   */\n      dup3\n        /* \"#utility.yul\":9570:9590   */\n      tag_123\n      jump\t// in\n    tag_155:\n        /* \"#utility.yul\":9565:9590   */\n      swap2\n      pop\n        /* \"#utility.yul\":9604:9624   */\n      tag_156\n        /* \"#utility.yul\":9622:9623   */\n      dup4\n        /* \"#utility.yul\":9604:9624   */\n      tag_123\n      jump\t// in\n    tag_156:\n        /* \"#utility.yul\":9599:9624   */\n      swap3\n      pop\n        /* \"#utility.yul\":9643:9644   */\n      dup3\n        /* \"#utility.yul\":9640:9641   */\n      dup3\n        /* \"#utility.yul\":9637:9645   */\n      lt\n        /* \"#utility.yul\":9634:9636   */\n      iszero\n      tag_157\n      jumpi\n        /* \"#utility.yul\":9648:9666   */\n      tag_158\n      tag_159\n      jump\t// in\n    tag_158:\n        /* \"#utility.yul\":9634:9636   */\n    tag_157:\n        /* \"#utility.yul\":9693:9694   */\n      dup3\n        /* \"#utility.yul\":9690:9691   */\n      dup3\n        /* \"#utility.yul\":9686:9695   */\n      sub\n        /* \"#utility.yul\":9678:9695   */\n      swap1\n      pop\n        /* \"#utility.yul\":9555:9701   */\n      swap3\n      swap2\n      pop\n      pop\n      jump\t// out\n        /* \"#utility.yul\":9707:9811   */\n    tag_89:\n      0x00\n        /* \"#utility.yul\":9781:9805   */\n      tag_161\n        /* \"#utility.yul\":9799:9804   */\n      dup3\n        /* \"#utility.yul\":9781:9805   */\n      tag_162\n      jump\t// in\n    tag_161:\n        /* \"#utility.yul\":9770:9805   */\n      swap1\n      pop\n        /* \"#utility.yul\":9760:9811   */\n      swap2\n      swap1\n      pop\n      jump\t// out\n        /* \"#utility.yul\":9817:9907   */\n    tag_93:\n      0x00\n        /* \"#utility.yul\":9894:9899   */\n      dup2\n        /* \"#utility.yul\":9887:9900   */\n      iszero\n        /* \"#utility.yul\":9880:9901   */\n      iszero\n        /* \"#utility.yul\":9869:9901   */\n      swap1\n      pop\n        /* \"#utility.yul\":9859:9907   */\n      swap2\n      swap1\n      pop\n      jump\t// out\n        /* \"#utility.yul\":9913:10039   */\n    tag_162:\n      0x00\n        /* \"#utility.yul\":9990:10032   */\n      0xffffffffffffffffffffffffffffffffffffffff\n        /* \"#utility.yul\":9983:9988   */\n      dup3\n        /* \"#utility.yul\":9979:10033   */\n      and\n        /* \"#utility.yul\":9968:10033   */\n      swap1\n      pop\n        /* \"#utility.yul\":9958:10039   */\n      swap2\n      swap1\n      pop\n      jump\t// out\n        /* \"#utility.yul\":10045:10122   */\n    tag_123:\n      0x00\n        /* \"#utility.yul\":10111:10116   */\n      dup2\n        /* \"#utility.yul\":10100:10116   */\n      swap1\n      pop\n        /* \"#utility.yul\":10090:10122   */\n      swap2\n      swap1\n      pop\n      jump\t// out\n        /* \"#utility.yul\":10128:10361   */\n    tag_33:\n      0x00\n        /* \"#utility.yul\":10190:10214   */\n      tag_167\n        /* \"#utility.yul\":10208:10213   */\n      dup3\n        /* \"#utility.yul\":10190:10214   */\n      tag_123\n      jump\t// in\n    tag_167:\n        /* \"#utility.yul\":10181:10214   */\n      swap2\n      pop\n        /* \"#utility.yul\":10236:10302   */\n      0xffffffffffffffffffffffffffffffffffffffffffffffffffffffffffffffff\n        /* \"#utility.yul\":10229:10234   */\n      dup3\n        /* \"#utility.yul\":10226:10303   */\n      eq\n        /* \"#utility.yul\":10223:10225   */\n      iszero\n      tag_168\n      jumpi\n        /* \"#utility.yul\":10306:10324   */\n      tag_169\n      tag_159\n      jump\t// in\n    tag_169:\n        /* \"#utility.yul\":10223:10225   */\n    tag_168:\n        /* \"#utility.yul\":10353:10354   */\n      0x01\n        /* \"#utility.yul\":10346:10351   */\n      dup3\n        /* \"#utility.yul\":10342:10355   */\n      add\n        /* \"#utility.yul\":10335:10355   */\n      swap1\n      pop\n        /* \"#utility.yul\":10171:10361   */\n      swap2\n      swap1\n      pop\n      jump\t// out\n        /* \"#utility.yul\":10367:10547   */\n    tag_159:\n        /* \"#utility.yul\":10415:10492   */\n      0x4e487b7100000000000000000000000000000000000000000000000000000000\n        /* \"#utility.yul\":10412:10413   */\n      0x00\n        /* \"#utility.yul\":10405:10493   */\n      mstore\n        /* \"#utility.yul\":10512:10516   */\n      0x11\n        /* \"#utility.yul\":10509:10510   */\n      0x04\n        /* \"#utility.yul\":10502:10517   */\n      mstore\n        /* \"#utility.yul\":10536:10540   */\n      0x24\n        /* \"#utility.yul\":10533:10534   */\n      0x00\n        /* \"#utility.yul\":10526:10541   */\n      revert\n        /* \"#utility.yul\":10553:10691   */\n    tag_73:\n        /* \"#utility.yul\":10634:10666   */\n      tag_172\n        /* \"#utility.yul\":10660:10665   */\n      dup2\n        /* \"#utility.yul\":10634:10666   */\n      tag_89\n      jump\t// in\n    tag_172:\n        /* \"#utility.yul\":10627:10632   */\n      dup2\n        /* \"#utility.yul\":10624:10667   */\n      eq\n        /* \"#utility.yul\":10614:10616   */\n      tag_173\n      jumpi\n        /* \"#utility.yul\":10681:10682   */\n      0x00\n        /* \"#utility.yul\":10678:10679   */\n      dup1\n        /* \"#utility.yul\":10671:10683   */\n      revert\n        /* \"#utility.yul\":10614:10616   */\n    tag_173:\n        /* \"#utility.yul\":10604:10691   */\n      pop\n      jump\t// out\n        /* \"#utility.yul\":10697:10819   */\n    tag_77:\n        /* \"#utility.yul\":10770:10794   */\n      tag_175\n        /* \"#utility.yul\":10788:10793   */\n      dup2\n        /* \"#utility.yul\":10770:10794   */\n      tag_123\n      jump\t// in\n    tag_175:\n        /* \"#utility.yul\":10763:10768   */\n      dup2\n        /* \"#utility.yul\":10760:10795   */\n      eq\n        /* \"#utility.yul\":10750:10752   */\n      tag_176\n      jumpi\n        /* \"#utility.yul\":10809:10810   */\n      0x00\n        /* \"#utility.yul\":10806:10807   */\n      dup1\n        /* \"#utility.yul\":10799:10811   */\n      revert\n        /* \"#utility.yul\":10750:10752   */\n    tag_176:\n        /* \"#utility.yul\":10740:10819   */\n      pop\n      jump\t// out\n\n    auxdata: 0xa2646970667358221220d908770e76216fa47924c28c90254b4e4b7e8467ebb33d38aa020ae313a642e564736f6c63430008000033\n}\n",
				"bytecode": {
					"linkReferences": {},
					"object": "60a060405234801561001057600080fd5b503373ffffffffffffffffffffffffffffffffffffffff1660808173ffffffffffffffffffffffffffffffffffffffff1660601b8152505060805160601c610e7361006660003960006101930152610e736000f3fe60806040526004361061003f5760003560e01c80631a47ff3a14610044578063875781af14610086578063d22a0d0f146100af578063f0975190146100ec575b600080fd5b34801561005057600080fd5b5061006b60048036038101906100669190610877565b610108565b60405161007d96959493929190610b7a565b60405180910390f35b34801561009257600080fd5b506100ad60048036038101906100a89190610828565b610191565b005b3480156100bb57600080fd5b506100d660048036038101906100d19190610877565b6103ce565b6040516100e39190610bdb565b60405180910390f35b61010660048036038101906101019190610877565b610495565b005b60016020528060005260406000206000915090508060000160009054906101000a900473ffffffffffffffffffffffffffffffffffffffff16908060010160009054906101000a900473ffffffffffffffffffffffffffffffffffffffff16908060020154908060030154908060040160009054906101000a900460ff16908060050154905086565b7f000000000000000000000000000000000000000000000000000000000000000073ffffffffffffffffffffffffffffffffffffffff163373ffffffffffffffffffffffffffffffffffffffff161461021f576040517f08c379a000000000000000000000000000000000000000000000000000000000815260040161021690610c76565b60405180910390fd5b60008081548092919061023190610d97565b91905055506040518060c001604052808473ffffffffffffffffffffffffffffffffffffffff1681526020013373ffffffffffffffffffffffffffffffffffffffff1681526020018381526020018281526020016000151581526020016000815250600160008054815260200190815260200160002060008201518160000160006101000a81548173ffffffffffffffffffffffffffffffffffffffff021916908373ffffffffffffffffffffffffffffffffffffffff16021790555060208201518160010160006101000a81548173ffffffffffffffffffffffffffffffffffffffff021916908373ffffffffffffffffffffffffffffffffffffffff160217905550604082015181600201556060820151816003015560808201518160040160006101000a81548160ff02191690831515021790555060a082015181600501559050508273ffffffffffffffffffffffffffffffffffffffff166000547f2c0c58266e0c9a9f772c7920b4999e21ea08bcd6aacb3d4c6ed3ad7945dae70284846040516103c1929190610cd6565b60405180910390a3505050565b60008073ffffffffffffffffffffffffffffffffffffffff166001600084815260200190815260200160002060000160009054906101000a900473ffffffffffffffffffffffffffffffffffffffff1673ffffffffffffffffffffffffffffffffffffffff161415610475576040517f08c379a000000000000000000000000000000000000000000000000000000000815260040161046c90610c16565b60405180910390fd5b600160008381526020019081526020016000206003015442119050919050565b60006001600083815260200190815260200160002090503373ffffffffffffffffffffffffffffffffffffffff168160000160009054906101000a900473ffffffffffffffffffffffffffffffffffffffff1673ffffffffffffffffffffffffffffffffffffffff161461053e576040517f08c379a000000000000000000000000000000000000000000000000000000000815260040161053590610c56565b60405180910390fd5b600015158160040160009054906101000a900460ff16151514610596576040517f08c379a000000000000000000000000000000000000000000000000000000000815260040161058d90610c96565b60405180910390fd5b80600201543410156105dd576040517f08c379a00000000000000000000000000000000000000000000000000000000081526004016105d490610c36565b60405180910390fd5b60018160040160006101000a81548160ff02191690831515021790555042816005018190555060008160010160009054906101000a900473ffffffffffffffffffffffffffffffffffffffff1673ffffffffffffffffffffffffffffffffffffffff16826002015460405161065190610b65565b60006040518083038185875af1925050503d806000811461068e576040519150601f19603f3d011682016040523d82523d6000602084013e610693565b606091505b50509050806106d7576040517f08c379a00000000000000000000000000000000000000000000000000000000081526004016106ce90610cb6565b60405180910390fd5b81600201543411156107a05760003373ffffffffffffffffffffffffffffffffffffffff1683600201543461070c9190610d1b565b60405161071890610b65565b60006040518083038185875af1925050503d8060008114610755576040519150601f19603f3d011682016040523d82523d6000602084013e61075a565b606091505b505090508061079e576040517f08c379a000000000000000000000000000000000000000000000000000000000815260040161079590610bf6565b60405180910390fd5b505b3373ffffffffffffffffffffffffffffffffffffffff16837f53646f88205e1dd1de6fdaa8898d840fbe17129cb98729533d3c83a3a0e6045a846002015485600501546040516107f1929190610cd6565b60405180910390a3505050565b60008135905061080d81610e0f565b92915050565b60008135905061082281610e26565b92915050565b60008060006060848603121561083d57600080fd5b600061084b868287016107fe565b935050602061085c86828701610813565b925050604061086d86828701610813565b9150509250925092565b60006020828403121561088957600080fd5b600061089784828501610813565b91505092915050565b6108a981610d4f565b82525050565b6108b881610d61565b82525050565b60006108cb601d83610d0a565b91507f5061796d656e74204572726f723a20526566756e64206661696c65642e0000006000830152602082019050919050565b600061090b601e83610d0a565b91507f4572726f723a2042696c6c20494420646f6573206e6f742065786973742e00006000830152602082019050919050565b600061094b602983610d0a565b91507f5061796d656e74204661696c65643a20496e73756666696369656e7420616d6f60008301527f756e742073656e742e00000000000000000000000000000000000000000000006020830152604082019050919050565b60006109b1603783610d0a565b91507f5061796d656e74204661696c65643a20596f7520617265206e6f74207468652060008301527f636f6e73756d657220666f7220746869732062696c6c2e0000000000000000006020830152604082019050919050565b6000610a17603883610d0a565b91507f4163636573733a204f6e6c7920746865205574696c6974792050726f7669646560008301527f7220284f776e6572292063616e2063616c6c20746869732e00000000000000006020830152604082019050919050565b6000610a7d600083610cff565b9150600082019050919050565b6000610a97602583610d0a565b91507f5061796d656e74204661696c65643a2042696c6c20697320616c72656164792060008301527f706169642e0000000000000000000000000000000000000000000000000000006020830152604082019050919050565b6000610afd602c83610d0a565b91507f5061796d656e74204661696c65643a205472616e7366657220746f2070726f7660008301527f69646572206661696c65642e00000000000000000000000000000000000000006020830152604082019050919050565b610b5f81610d8d565b82525050565b6000610b7082610a70565b9150819050919050565b600060c082019050610b8f60008301896108a0565b610b9c60208301886108a0565b610ba96040830187610b56565b610bb66060830186610b56565b610bc360808301856108af565b610bd060a0830184610b56565b979650505050505050565b6000602082019050610bf060008301846108af565b92915050565b60006020820190508181036000830152610c0f816108be565b9050919050565b60006020820190508181036000830152610c2f816108fe565b9050919050565b60006020820190508181036000830152610c4f8161093e565b9050919050565b60006020820190508181036000830152610c6f816109a4565b9050919050565b60006020820190508181036000830152610c8f81610a0a565b9050919050565b60006020820190508181036000830152610caf81610a8a565b9050919050565b60006020820190508181036000830152610ccf81610af0565b9050919050565b6000604082019050610ceb6000830185610b56565b610cf86020830184610b56565b9392505050565b600081905092915050565b600082825260208201905092915050565b6000610d2682610d8d565b9150610d3183610d8d565b925082821015610d4457610d43610de0565b5b828203905092915050565b6000610d5a82610d6d565b9050919050565b60008115159050919050565b600073ffffffffffffffffffffffffffffffffffffffff82169050919050565b6000819050919050565b6000610da282610d8d565b91507fffffffffffffffffffffffffffffffffffffffffffffffffffffffffffffffff821415610dd557610dd4610de0565b5b600182019050919050565b7f4e487b7100000000000000000000000000000000000000000000000000000000600052601160045260246000fd5b610e1881610d4f565b8114610e2357600080fd5b50565b610e2f81610d8d565b8114610e3a57600080fd5b5056fea2646970667358221220d908770e76216fa47924c28c90254b4e4b7e8467ebb33d38aa020ae313a642e564736f6c63430008000033",
					"opcodes": "PUSH1 0xA0 PUSH1 0x40 MSTORE CALLVALUE DUP1 ISZERO PUSH2 0x10 JUMPI PUSH1 0x0 DUP1 REVERT JUMPDEST POP CALLER PUSH20 0xFFFFFFFFFFFFFFFFFFFFFFFFFFFFFFFFFFFFFFFF AND PUSH1 0x80 DUP2 PUSH20 0xFFFFFFFFFFFFFFFFFFFFFFFFFFFFFFFFFFFFFFFF AND PUSH1 0x60 SHL DUP2 MSTORE POP POP PUSH1 0x80 MLOAD PUSH1 0x60 SHR PUSH2 0xE73 PUSH2 0x66 PUSH1 0x0 CODECOPY PUSH1 0x0 PUSH2 0x193 ADD MSTORE PUSH2 0xE73 PUSH1 0x0 RETURN INVALID PUSH1 0x80 PUSH1 0x40 MSTORE PUSH1 0x4 CALLDATASIZE LT PUSH2 0x3F JUMPI PUSH1 0x0 CALLDATALOAD PUSH1 0xE0 SHR DUP1 PUSH4 0x1A47FF3A EQ PUSH2 0x44 JUMPI DUP1 PUSH4 0x875781AF EQ PUSH2 0x86 JUMPI DUP1 PUSH4 0xD22A0D0F EQ PUSH2 0xAF JUMPI DUP1 PUSH4 0xF0975190 EQ PUSH2 0xEC JUMPI JUMPDEST PUSH1 0x0 DUP1 REVERT JUMPDEST CALLVALUE DUP1 ISZERO PUSH2 0x50 JUMPI PUSH1 0x0 DUP1 REVERT JUMPDEST POP PUSH2 0x6B PUSH1 0x4 DUP1 CALLDATASIZE SUB DUP2 ADD SWAP1 PUSH2 0x66 SWAP2 SWAP1 PUSH2 0x877 JUMP JUMPDEST PUSH2 0x108 JUMP JUMPDEST PUSH1 0x40 MLOAD PUSH2 0x7D SWAP7 SWAP6 SWAP5 SWAP4 SWAP3 SWAP2 SWAP1 PUSH2 0xB7A JUMP JUMPDEST PUSH1 0x40 MLOAD DUP1 SWAP2 SUB SWAP1 RETURN JUMPDEST CALLVALUE DUP1 ISZERO PUSH2 0x92 JUMPI PUSH1 0x0 DUP1 REVERT JUMPDEST POP PUSH2 0xAD PUSH1 0x4 DUP1 CALLDATASIZE SUB DUP2 ADD SWAP1 PUSH2 0xA8 SWAP2 SWAP1 PUSH2 0x828 JUMP JUMPDEST PUSH2 0x191 JUMP JUMPDEST STOP JUMPDEST CALLVALUE DUP1 ISZERO PUSH2 0xBB JUMPI PUSH1 0x0 DUP1 REVERT JUMPDEST POP PUSH2 0xD6 PUSH1 0x4 DUP1 CALLDATASIZE SUB DUP2 ADD SWAP1 PUSH2 0xD1 SWAP2 SWAP1 PUSH2 0x877 JUMP JUMPDEST PUSH2 0x3CE JUMP JUMPDEST PUSH1 0x40 MLOAD PUSH2 0xE3 SWAP2 SWAP1 PUSH2 0xBDB JUMP JUMPDEST PUSH1 0x40 MLOAD DUP1 SWAP2 SUB SWAP1 RETURN JUMPDEST PUSH2 0x106 PUSH1 0x4 DUP1 CALLDATASIZE SUB DUP2 ADD SWAP1 PUSH2 0x101 SWAP2 SWAP1 PUSH2 0x877 JUMP JUMPDEST PUSH2 0x495 JUMP JUMPDEST STOP JUMPDEST PUSH1 0x1 PUSH1 0x20 MSTORE DUP1 PUSH1 0x0 MSTORE PUSH1 0x40 PUSH1 0x0 KECCAK256 PUSH1 0x0 SWAP2 POP SWAP1 POP DUP1 PUSH1 0x0 ADD PUSH1 0x0 SWAP1 SLOAD SWAP1 PUSH2 0x100 EXP SWAP1 DIV PUSH20 0xFFFFFFFFFFFFFFFFFFFFFFFFFFFFFFFFFFFFFFFF AND SWAP1 DUP1 PUSH1 0x1 ADD PUSH1 0x0 SWAP1 SLOAD SWAP1 PUSH2 0x100 EXP SWAP1 DIV PUSH20 0xFFFFFFFFFFFFFFFFFFFFFFFFFFFFFFFFFFFFFFFF AND SWAP1 DUP1 PUSH1 0x2 ADD SLOAD SWAP1 DUP1 PUSH1 0x3 ADD SLOAD SWAP1 DUP1 PUSH1 0x4 ADD PUSH1 0x0 SWAP1 SLOAD SWAP1 PUSH2 0x100 EXP SWAP1 DIV PUSH1 0xFF AND SWAP1 DUP1 PUSH1 0x5 ADD SLOAD SWAP1 POP DUP7 JUMP JUMPDEST PUSH32 0x0 PUSH20 0xFFFFFFFFFFFFFFFFFFFFFFFFFFFFFFFFFFFFFFFF AND CALLER PUSH20 0xFFFFFFFFFFFFFFFFFFFFFFFFFFFFFFFFFFFFFFFF AND EQ PUSH2 0x21F JUMPI PUSH1 0x40 MLOAD PUSH32 0x8C379A000000000000000000000000000000000000000000000000000000000 DUP2 MSTORE PUSH1 0x4 ADD PUSH2 0x216 SWAP1 PUSH2 0xC76 JUMP JUMPDEST PUSH1 0x40 MLOAD DUP1 SWAP2 SUB SWAP1 REVERT JUMPDEST PUSH1 0x0 DUP1 DUP2 SLOAD DUP1 SWAP3 SWAP2 SWAP1 PUSH2 0x231 SWAP1 PUSH2 0xD97 JUMP JUMPDEST SWAP2 SWAP1 POP SSTORE POP PUSH1 0x40 MLOAD DUP1 PUSH1 0xC0 ADD PUSH1 0x40 MSTORE DUP1 DUP5 PUSH20 0xFFFFFFFFFFFFFFFFFFFFFFFFFFFFFFFFFFFFFFFF AND DUP2 MSTORE PUSH1 0x20 ADD CALLER PUSH20 0xFFFFFFFFFFFFFFFFFFFFFFFFFFFFFFFFFFFFFFFF AND DUP2 MSTORE PUSH1 0x20 ADD DUP4 DUP2 MSTORE PUSH1 0x20 ADD DUP3 DUP2 MSTORE PUSH1 0x20 ADD PUSH1 0x0 ISZERO ISZERO DUP2 MSTORE PUSH1 0x20 ADD PUSH1 0x0 DUP2 MSTORE POP PUSH1 0x1 PUSH1 0x0 DUP1 SLOAD DUP2 MSTORE PUSH1 0x20 ADD SWAP1 DUP2 MSTORE PUSH1 0x20 ADD PUSH1 0x0 KECCAK256 PUSH1 0x0 DUP3 ADD MLOAD DUP2 PUSH1 0x0 ADD PUSH1 0x0 PUSH2 0x100 EXP DUP2 SLOAD DUP2 PUSH20 0xFFFFFFFFFFFFFFFFFFFFFFFFFFFFFFFFFFFFFFFF MUL NOT AND SWAP1 DUP4 PUSH20 0xFFFFFFFFFFFFFFFFFFFFFFFFFFFFFFFFFFFFFFFF AND MUL OR SWAP1 SSTORE POP PUSH1 0x20 DUP3 ADD MLOAD DUP2 PUSH1 0x1 ADD PUSH1 0x0 PUSH2 0x100 EXP DUP2 SLOAD DUP2 PUSH20 0xFFFFFFFFFFFFFFFFFFFFFFFFFFFFFFFFFFFFFFFF MUL NOT AND SWAP1 DUP4 PUSH20 0xFFFFFFFFFFFFFFFFFFFFFFFFFFFFFFFFFFFFFFFF AND MUL OR SWAP1 SSTORE POP PUSH1 0x40 DUP3 ADD MLOAD DUP2 PUSH1 0x2 ADD SSTORE PUSH1 0x60 DUP3 ADD MLOAD DUP2 PUSH1 0x3 ADD SSTORE PUSH1 0x80 DUP3 ADD MLOAD DUP2 PUSH1 0x4 ADD PUSH1 0x0 PUSH2 0x100 EXP DUP2 SLOAD DUP2 PUSH1 0xFF MUL NOT AND SWAP1 DUP4 ISZERO ISZERO MUL OR SWAP1 SSTORE POP PUSH1 0xA0 DUP3 ADD MLOAD DUP2 PUSH1 0x5 ADD SSTORE SWAP1 POP POP DUP3 PUSH20 0xFFFFFFFFFFFFFFFFFFFFFFFFFFFFFFFFFFFFFFFF AND PUSH1 0x0 SLOAD PUSH32 0x2C0C58266E0C9A9F772C7920B4999E21EA08BCD6AACB3D4C6ED3AD7945DAE702 DUP5 DUP5 PUSH1 0x40 MLOAD PUSH2 0x3C1 SWAP3 SWAP2 SWAP1 PUSH2 0xCD6 JUMP JUMPDEST PUSH1 0x40 MLOAD DUP1 SWAP2 SUB SWAP1 LOG3 POP POP POP JUMP JUMPDEST PUSH1 0x0 DUP1 PUSH20 0xFFFFFFFFFFFFFFFFFFFFFFFFFFFFFFFFFFFFFFFF AND PUSH1 0x1 PUSH1 0x0 DUP5 DUP2 MSTORE PUSH1 0x20 ADD SWAP1 DUP2 MSTORE PUSH1 0x20 ADD PUSH1 0x0 KECCAK256 PUSH1 0x0 ADD PUSH1 0x0 SWAP1 SLOAD SWAP1 PUSH2 0x100 EXP SWAP1 DIV PUSH20 0xFFFFFFFFFFFFFFFFFFFFFFFFFFFFFFFFFFFFFFFF AND PUSH20 0xFFFFFFFFFFFFFFFFFFFFFFFFFFFFFFFFFFFFFFFF AND EQ ISZERO PUSH2 0x475 JUMPI PUSH1 0x40 MLOAD PUSH32 0x8C379A000000000000000000000000000000000000000000000000000000000 DUP2 MSTORE PUSH1 0x4 ADD PUSH2 0x46C SWAP1 PUSH2 0xC16 JUMP JUMPDEST PUSH1 0x40 MLOAD DUP1 SWAP2 SUB SWAP1 REVERT JUMPDEST PUSH1 0x1 PUSH1 0x0 DUP4 DUP2 MSTORE PUSH1 0x20 ADD SWAP1 DUP2 MSTORE PUSH1 0x20 ADD PUSH1 0x0 KECCAK256 PUSH1 0x3 ADD SLOAD TIMESTAMP GT SWAP1 POP SWAP2 SWAP1 POP JUMP JUMPDEST PUSH1 0x0 PUSH1 0x1 PUSH1 0x0 DUP4 DUP2 MSTORE PUSH1 0x20 ADD SWAP1 DUP2 MSTORE PUSH1 0x20 ADD PUSH1 0x0 KECCAK256 SWAP1 POP CALLER PUSH20 0xFFFFFFFFFFFFFFFFFFFFFFFFFFFFFFFFFFFFFFFF AND DUP2 PUSH1 0x0 ADD PUSH1 0x0 SWAP1 SLOAD SWAP1 PUSH2 0x100 EXP SWAP1 DIV PUSH20 0xFFFFFFFFFFFFFFFFFFFFFFFFFFFFFFFFFFFFFFFF AND PUSH20 0xFFFFFFFFFFFFFFFFFFFFFFFFFFFFFFFFFFFFFFFF AND EQ PUSH2 0x53E JUMPI PUSH1 0x40 MLOAD PUSH32 0x8C379A000000000000000000000000000000000000000000000000000000000 DUP2 MSTORE PUSH1 0x4 ADD PUSH2 0x535 SWAP1 PUSH2 0xC56 JUMP JUMPDEST PUSH1 0x40 MLOAD DUP1 SWAP2 SUB SWAP1 REVERT JUMPDEST PUSH1 0x0 ISZERO ISZERO DUP2 PUSH1 0x4 ADD PUSH1 0x0 SWAP1 SLOAD SWAP1 PUSH2 0x100 EXP SWAP1 DIV PUSH1 0xFF AND ISZERO ISZERO EQ PUSH2 0x596 JUMPI PUSH1 0x40 MLOAD PUSH32 0x8C379A000000000000000000000000000000000000000000000000000000000 DUP2 MSTORE PUSH1 0x4 ADD PUSH2 0x58D SWAP1 PUSH2 0xC96 JUMP JUMPDEST PUSH1 0x40 MLOAD DUP1 SWAP2 SUB SWAP1 REVERT JUMPDEST DUP1 PUSH1 0x2 ADD SLOAD CALLVALUE LT ISZERO PUSH2 0x5DD JUMPI PUSH1 0x40 MLOAD PUSH32 0x8C379A000000000000000000000000000000000000000000000000000000000 DUP2 MSTORE PUSH1 0x4 ADD PUSH2 0x5D4 SWAP1 PUSH2 0xC36 JUMP JUMPDEST PUSH1 0x40 MLOAD DUP1 SWAP2 SUB SWAP1 REVERT JUMPDEST PUSH1 0x1 DUP2 PUSH1 0x4 ADD PUSH1 0x0 PUSH2 0x100 EXP DUP2 SLOAD DUP2 PUSH1 0xFF MUL NOT AND SWAP1 DUP4 ISZERO ISZERO MUL OR SWAP1 SSTORE POP TIMESTAMP DUP2 PUSH1 0x5 ADD DUP2 SWAP1 SSTORE POP PUSH1 0x0 DUP2 PUSH1 0x1 ADD PUSH1 0x0 SWAP1 SLOAD SWAP1 PUSH2 0x100 EXP SWAP1 DIV PUSH20 0xFFFFFFFFFFFFFFFFFFFFFFFFFFFFFFFFFFFFFFFF AND PUSH20 0xFFFFFFFFFFFFFFFFFFFFFFFFFFFFFFFFFFFFFFFF AND DUP3 PUSH1 0x2 ADD SLOAD PUSH1 0x40 MLOAD PUSH2 0x651 SWAP1 PUSH2 0xB65 JUMP JUMPDEST PUSH1 0x0 PUSH1 0x40 MLOAD DUP1 DUP4 SUB DUP2 DUP6 DUP8 GAS CALL SWAP3 POP POP POP RETURNDATASIZE DUP1 PUSH1 0x0 DUP2 EQ PUSH2 0x68E JUMPI PUSH1 0x40 MLOAD SWAP2 POP PUSH1 0x1F NOT PUSH1 0x3F RETURNDATASIZE ADD AND DUP3 ADD PUSH1 0x40 MSTORE RETURNDATASIZE DUP3 MSTORE RETURNDATASIZE PUSH1 0x0 PUSH1 0x20 DUP5 ADD RETURNDATACOPY PUSH2 0x693 JUMP JUMPDEST PUSH1 0x60 SWAP2 POP JUMPDEST POP POP SWAP1 POP DUP1 PUSH2 0x6D7 JUMPI PUSH1 0x40 MLOAD PUSH32 0x8C379A000000000000000000000000000000000000000000000000000000000 DUP2 MSTORE PUSH1 0x4 ADD PUSH2 0x6CE SWAP1 PUSH2 0xCB6 JUMP JUMPDEST PUSH1 0x40 MLOAD DUP1 SWAP2 SUB SWAP1 REVERT JUMPDEST DUP2 PUSH1 0x2 ADD SLOAD CALLVALUE GT ISZERO PUSH2 0x7A0 JUMPI PUSH1 0x0 CALLER PUSH20 0xFFFFFFFFFFFFFFFFFFFFFFFFFFFFFFFFFFFFFFFF AND DUP4 PUSH1 0x2 ADD SLOAD CALLVALUE PUSH2 0x70C SWAP2 SWAP1 PUSH2 0xD1B JUMP JUMPDEST PUSH1 0x40 MLOAD PUSH2 0x718 SWAP1 PUSH2 0xB65 JUMP JUMPDEST PUSH1 0x0 PUSH1 0x40 MLOAD DUP1 DUP4 SUB DUP2 DUP6 DUP8 GAS CALL SWAP3 POP POP POP RETURNDATASIZE DUP1 PUSH1 0x0 DUP2 EQ PUSH2 0x755 JUMPI PUSH1 0x40 MLOAD SWAP2 POP PUSH1 0x1F NOT PUSH1 0x3F RETURNDATASIZE ADD AND DUP3 ADD PUSH1 0x40 MSTORE RETURNDATASIZE DUP3 MSTORE RETURNDATASIZE PUSH1 0x0 PUSH1 0x20 DUP5 ADD RETURNDATACOPY PUSH2 0x75A JUMP JUMPDEST PUSH1 0x60 SWAP2 POP JUMPDEST POP POP SWAP1 POP DUP1 PUSH2 0x79E JUMPI PUSH1 0x40 MLOAD PUSH32 0x8C379A000000000000000000000000000000000000000000000000000000000 DUP2 MSTORE PUSH1 0x4 ADD PUSH2 0x795 SWAP1 PUSH2 0xBF6 JUMP JUMPDEST PUSH1 0x40 MLOAD DUP1 SWAP2 SUB SWAP1 REVERT JUMPDEST POP JUMPDEST CALLER PUSH20 0xFFFFFFFFFFFFFFFFFFFFFFFFFFFFFFFFFFFFFFFF AND DUP4 PUSH32 0x53646F88205E1DD1DE6FDAA8898D840FBE17129CB98729533D3C83A3A0E6045A DUP5 PUSH1 0x2 ADD SLOAD DUP6 PUSH1 0x5 ADD SLOAD PUSH1 0x40 MLOAD PUSH2 0x7F1 SWAP3 SWAP2 SWAP1 PUSH2 0xCD6 JUMP JUMPDEST PUSH1 0x40 MLOAD DUP1 SWAP2 SUB SWAP1 LOG3 POP POP POP JUMP JUMPDEST PUSH1 0x0 DUP2 CALLDATALOAD SWAP1 POP PUSH2 0x80D DUP2 PUSH2 0xE0F JUMP JUMPDEST SWAP3 SWAP2 POP POP JUMP JUMPDEST PUSH1 0x0 DUP2 CALLDATALOAD SWAP1 POP PUSH2 0x822 DUP2 PUSH2 0xE26 JUMP JUMPDEST SWAP3 SWAP2 POP POP JUMP JUMPDEST PUSH1 0x0 DUP1 PUSH1 0x0 PUSH1 0x60 DUP5 DUP7 SUB SLT ISZERO PUSH2 0x83D JUMPI PUSH1 0x0 DUP1 REVERT JUMPDEST PUSH1 0x0 PUSH2 0x84B DUP7 DUP3 DUP8 ADD PUSH2 0x7FE JUMP JUMPDEST SWAP4 POP POP PUSH1 0x20 PUSH2 0x85C DUP7 DUP3 DUP8 ADD PUSH2 0x813 JUMP JUMPDEST SWAP3 POP POP PUSH1 0x40 PUSH2 0x86D DUP7 DUP3 DUP8 ADD PUSH2 0x813 JUMP JUMPDEST SWAP2 POP POP SWAP3 POP SWAP3 POP SWAP3 JUMP JUMPDEST PUSH1 0x0 PUSH1 0x20 DUP3 DUP5 SUB SLT ISZERO PUSH2 0x889 JUMPI PUSH1 0x0 DUP1 REVERT JUMPDEST PUSH1 0x0 PUSH2 0x897 DUP5 DUP3 DUP6 ADD PUSH2 0x813 JUMP JUMPDEST SWAP2 POP POP SWAP3 SWAP2 POP POP JUMP JUMPDEST PUSH2 0x8A9 DUP2 PUSH2 0xD4F JUMP JUMPDEST DUP3 MSTORE POP POP JUMP JUMPDEST PUSH2 0x8B8 DUP2 PUSH2 0xD61 JUMP JUMPDEST DUP3 MSTORE POP POP JUMP JUMPDEST PUSH1 0x0 PUSH2 0x8CB PUSH1 0x1D DUP4 PUSH2 0xD0A JUMP JUMPDEST SWAP2 POP PUSH32 0x5061796D656E74204572726F723A20526566756E64206661696C65642E000000 PUSH1 0x0 DUP4 ADD MSTORE PUSH1 0x20 DUP3 ADD SWAP1 POP SWAP2 SWAP1 POP JUMP JUMPDEST PUSH1 0x0 PUSH2 0x90B PUSH1 0x1E DUP4 PUSH2 0xD0A JUMP JUMPDEST SWAP2 POP PUSH32 0x4572726F723A2042696C6C20494420646F6573206E6F742065786973742E0000 PUSH1 0x0 DUP4 ADD MSTORE PUSH1 0x20 DUP3 ADD SWAP1 POP SWAP2 SWAP1 POP JUMP JUMPDEST PUSH1 0x0 PUSH2 0x94B PUSH1 0x29 DUP4 PUSH2 0xD0A JUMP JUMPDEST SWAP2 POP PUSH32 0x5061796D656E74204661696C65643A20496E73756666696369656E7420616D6F PUSH1 0x0 DUP4 ADD MSTORE PUSH32 0x756E742073656E742E0000000000000000000000000000000000000000000000 PUSH1 0x20 DUP4 ADD MSTORE PUSH1 0x40 DUP3 ADD SWAP1 POP SWAP2 SWAP1 POP JUMP JUMPDEST PUSH1 0x0 PUSH2 0x9B1 PUSH1 0x37 DUP4 PUSH2 0xD0A JUMP JUMPDEST SWAP2 POP PUSH32 0x5061796D656E74204661696C65643A20596F7520617265206E6F742074686520 PUSH1 0x0 DUP4 ADD MSTORE PUSH32 0x636F6E73756D657220666F7220746869732062696C6C2E000000000000000000 PUSH1 0x20 DUP4 ADD MSTORE PUSH1 0x40 DUP3 ADD SWAP1 POP SWAP2 SWAP1 POP JUMP JUMPDEST PUSH1 0x0 PUSH2 0xA17 PUSH1 0x38 DUP4 PUSH2 0xD0A JUMP JUMPDEST SWAP2 POP PUSH32 0x4163636573733A204F6E6C7920746865205574696C6974792050726F76696465 PUSH1 0x0 DUP4 ADD MSTORE PUSH32 0x7220284F776E6572292063616E2063616C6C20746869732E0000000000000000 PUSH1 0x20 DUP4 ADD MSTORE PUSH1 0x40 DUP3 ADD SWAP1 POP SWAP2 SWAP1 POP JUMP JUMPDEST PUSH1 0x0 PUSH2 0xA7D PUSH1 0x0 DUP4 PUSH2 0xCFF JUMP JUMPDEST SWAP2 POP PUSH1 0x0 DUP3 ADD SWAP1 POP SWAP2 SWAP1 POP JUMP JUMPDEST PUSH1 0x0 PUSH2 0xA97 PUSH1 0x25 DUP4 PUSH2 0xD0A JUMP JUMPDEST SWAP2 POP PUSH32 0x5061796D656E74204661696C65643A2042696C6C20697320616C726561647920 PUSH1 0x0 DUP4 ADD MSTORE PUSH32 0x706169642E000000000000000000000000000000000000000000000000000000 PUSH1 0x20 DUP4 ADD MSTORE PUSH1 0x40 DUP3 ADD SWAP1 POP SWAP2 SWAP1 POP JUMP JUMPDEST PUSH1 0x0 PUSH2 0xAFD PUSH1 0x2C DUP4 PUSH2 0xD0A JUMP JUMPDEST SWAP2 POP PUSH32 0x5061796D656E74204661696C65643A205472616E7366657220746F2070726F76 PUSH1 0x0 DUP4 ADD MSTORE PUSH32 0x69646572206661696C65642E0000000000000000000000000000000000000000 PUSH1 0x20 DUP4 ADD MSTORE PUSH1 0x40 DUP3 ADD SWAP1 POP SWAP2 SWAP1 POP JUMP JUMPDEST PUSH2 0xB5F DUP2 PUSH2 0xD8D JUMP JUMPDEST DUP3 MSTORE POP POP JUMP JUMPDEST PUSH1 0x0 PUSH2 0xB70 DUP3 PUSH2 0xA70 JUMP JUMPDEST SWAP2 POP DUP2 SWAP1 POP SWAP2 SWAP1 POP JUMP JUMPDEST PUSH1 0x0 PUSH1 0xC0 DUP3 ADD SWAP1 POP PUSH2 0xB8F PUSH1 0x0 DUP4 ADD DUP10 PUSH2 0x8A0 JUMP JUMPDEST PUSH2 0xB9C PUSH1 0x20 DUP4 ADD DUP9 PUSH2 0x8A0 JUMP JUMPDEST PUSH2 0xBA9 PUSH1 0x40 DUP4 ADD DUP8 PUSH2 0xB56 JUMP JUMPDEST PUSH2 0xBB6 PUSH1 0x60 DUP4 ADD DUP7 PUSH2 0xB56 JUMP JUMPDEST PUSH2 0xBC3 PUSH1 0x80 DUP4 ADD DUP6 PUSH2 0x8AF JUMP JUMPDEST PUSH2 0xBD0 PUSH1 0xA0 DUP4 ADD DUP5 PUSH2 0xB56 JUMP JUMPDEST SWAP8 SWAP7 POP POP POP POP POP POP POP JUMP JUMPDEST PUSH1 0x0 PUSH1 0x20 DUP3 ADD SWAP1 POP PUSH2 0xBF0 PUSH1 0x0 DUP4 ADD DUP5 PUSH2 0x8AF JUMP JUMPDEST SWAP3 SWAP2 POP POP JUMP JUMPDEST PUSH1 0x0 PUSH1 0x20 DUP3 ADD SWAP1 POP DUP2 DUP2 SUB PUSH1 0x0 DUP4 ADD MSTORE PUSH2 0xC0F DUP2 PUSH2 0x8BE JUMP JUMPDEST SWAP1 POP SWAP2 SWAP1 POP JUMP JUMPDEST PUSH1 0x0 PUSH1 0x20 DUP3 ADD SWAP1 POP DUP2 DUP2 SUB PUSH1 0x0 DUP4 ADD MSTORE PUSH2 0xC2F DUP2 PUSH2 0x8FE JUMP JUMPDEST SWAP1 POP SWAP2 SWAP1 POP JUMP JUMPDEST PUSH1 0x0 PUSH1 0x20 DUP3 ADD SWAP1 POP DUP2 DUP2 SUB PUSH1 0x0 DUP4 ADD MSTORE PUSH2 0xC4F DUP2 PUSH2 0x93E JUMP JUMPDEST SWAP1 POP SWAP2 SWAP1 POP JUMP JUMPDEST PUSH1 0x0 PUSH1 0x20 DUP3 ADD SWAP1 POP DUP2 DUP2 SUB PUSH1 0x0 DUP4 ADD MSTORE PUSH2 0xC6F DUP2 PUSH2 0x9A4 JUMP JUMPDEST SWAP1 POP SWAP2 SWAP1 POP JUMP JUMPDEST PUSH1 0x0 PUSH1 0x20 DUP3 ADD SWAP1 POP DUP2 DUP2 SUB PUSH1 0x0 DUP4 ADD MSTORE PUSH2 0xC8F DUP2 PUSH2 0xA0A JUMP JUMPDEST SWAP1 POP SWAP2 SWAP1 POP JUMP JUMPDEST PUSH1 0x0 PUSH1 0x20 DUP3 ADD SWAP1 POP DUP2 DUP2 SUB PUSH1 0x0 DUP4 ADD MSTORE PUSH2 0xCAF DUP2 PUSH2 0xA8A JUMP JUMPDEST SWAP1 POP SWAP2 SWAP1 POP JUMP JUMPDEST PUSH1 0x0 PUSH1 0x20 DUP3 ADD SWAP1 POP DUP2 DUP2 SUB PUSH1 0x0 DUP4 ADD MSTORE PUSH2 0xCCF DUP2 PUSH2 0xAF0 JUMP JUMPDEST SWAP1 POP SWAP2 SWAP1 POP JUMP JUMPDEST PUSH1 0x0 PUSH1 0x40 DUP3 ADD SWAP1 POP PUSH2 0xCEB PUSH1 0x0 DUP4 ADD DUP6 PUSH2 0xB56 JUMP JUMPDEST PUSH2 0xCF8 PUSH1 0x20 DUP4 ADD DUP5 PUSH2 0xB56 JUMP JUMPDEST SWAP4 SWAP3 POP POP POP JUMP JUMPDEST PUSH1 0x0 DUP2 SWAP1 POP SWAP3 SWAP2 POP POP JUMP JUMPDEST PUSH1 0x0 DUP3 DUP3 MSTORE PUSH1 0x20 DUP3 ADD SWAP1 POP SWAP3 SWAP2 POP POP JUMP JUMPDEST PUSH1 0x0 PUSH2 0xD26 DUP3 PUSH2 0xD8D JUMP JUMPDEST SWAP2 POP PUSH2 0xD31 DUP4 PUSH2 0xD8D JUMP JUMPDEST SWAP3 POP DUP3 DUP3 LT ISZERO PUSH2 0xD44 JUMPI PUSH2 0xD43 PUSH2 0xDE0 JUMP JUMPDEST JUMPDEST DUP3 DUP3 SUB SWAP1 POP SWAP3 SWAP2 POP POP JUMP JUMPDEST PUSH1 0x0 PUSH2 0xD5A DUP3 PUSH2 0xD6D JUMP JUMPDEST SWAP1 POP SWAP2 SWAP1 POP JUMP JUMPDEST PUSH1 0x0 DUP2 ISZERO ISZERO SWAP1 POP SWAP2 SWAP1 POP JUMP JUMPDEST PUSH1 0x0 PUSH20 0xFFFFFFFFFFFFFFFFFFFFFFFFFFFFFFFFFFFFFFFF DUP3 AND SWAP1 POP SWAP2 SWAP1 POP JUMP JUMPDEST PUSH1 0x0 DUP2 SWAP1 POP SWAP2 SWAP1 POP JUMP JUMPDEST PUSH1 0x0 PUSH2 0xDA2 DUP3 PUSH2 0xD8D JUMP JUMPDEST SWAP2 POP PUSH32 0xFFFFFFFFFFFFFFFFFFFFFFFFFFFFFFFFFFFFFFFFFFFFFFFFFFFFFFFFFFFFFFFF DUP3 EQ ISZERO PUSH2 0xDD5 JUMPI PUSH2 0xDD4 PUSH2 0xDE0 JUMP JUMPDEST JUMPDEST PUSH1 0x1 DUP3 ADD SWAP1 POP SWAP2 SWAP1 POP JUMP JUMPDEST PUSH32 0x4E487B7100000000000000000000000000000000000000000000000000000000 PUSH1 0x0 MSTORE PUSH1 0x11 PUSH1 0x4 MSTORE PUSH1 0x24 PUSH1 0x0 REVERT JUMPDEST PUSH2 0xE18 DUP2 PUSH2 0xD4F JUMP JUMPDEST DUP2 EQ PUSH2 0xE23 JUMPI PUSH1 0x0 DUP1 REVERT JUMPDEST POP JUMP JUMPDEST PUSH2 0xE2F DUP2 PUSH2 0xD8D JUMP JUMPDEST DUP2 EQ PUSH2 0xE3A JUMPI PUSH1 0x0 DUP1 REVERT JUMPDEST POP JUMP INVALID LOG2 PUSH5 0x6970667358 0x22 SLT KECCAK256 0xD9 ADDMOD PUSH24 0xE76216FA47924C28C90254B4E4B7E8467EBB33D38AA020A 0xE3 SGT 0xA6 TIMESTAMP 0xE5 PUSH5 0x736F6C6343 STOP ADDMOD STOP STOP CALLER "
				},
				"gasEstimates": {
					"creation": {
						"codeDepositCost": "739800",
						"executionCost": "infinite",
						"totalCost": "infinite"
					},
					"external": {
						"addBill(address,uint256,uint256)": "infinite",
						"idToBill(uint256)": "infinite",
						"isOverdue(uint256)": "2477",
						"payBill(uint256)": "infinite"
					}
				},
				"methodIdentifiers": {
					"addBill(address,uint256,uint256)": "875781af",
					"idToBill(uint256)": "1a47ff3a",
					"isOverdue(uint256)": "d22a0d0f",
					"payBill(uint256)": "f0975190"
				}
			},
			"storageLayout": {
				"storage": [
					{
						"astId": 6,
						"contract": "UtilityBillTracker.sol:Project",
						"label": "s_billCount",
						"offset": 0,
						"slot": "0",
						"type": "t_uint256"
					},
					{
						"astId": 24,
						"contract": "UtilityBillTracker.sol:Project",
						"label": "idToBill",
						"offset": 0,
						"slot": "1",
						"type": "t_mapping(t_uint256,t_struct(Bill)19_storage)"
					}
				],
				"types": {
					"t_address_payable": {
						"encoding": "inplace",
						"label": "address payable",
						"numberOfBytes": "20"
					},
					"t_bool": {
						"encoding": "inplace",
						"label": "bool",
						"numberOfBytes": "1"
					},
					"t_mapping(t_uint256,t_struct(Bill)19_storage)": {
						"encoding": "mapping",
						"key": "t_uint256",
						"label": "mapping(uint256 => struct Project.Bill)",
						"numberOfBytes": "32",
						"value": "t_struct(Bill)19_storage"
					},
					"t_struct(Bill)19_storage": {
						"encoding": "inplace",
						"label": "struct Project.Bill",
						"members": [
							{
								"astId": 8,
								"contract": "UtilityBillTracker.sol:Project",
								"label": "consumer",
								"offset": 0,
								"slot": "0",
								"type": "t_address_payable"
							},
							{
								"astId": 10,
								"contract": "UtilityBillTracker.sol:Project",
								"label": "utilityProvider",
								"offset": 0,
								"slot": "1",
								"type": "t_address_payable"
							},
							{
								"astId": 12,
								"contract": "UtilityBillTracker.sol:Project",
								"label": "amountDue",
								"offset": 0,
								"slot": "2",
								"type": "t_uint256"
							},
							{
								"astId": 14,
								"contract": "UtilityBillTracker.sol:Project",
								"label": "dueDate",
								"offset": 0,
								"slot": "3",
								"type": "t_uint256"
							},
							{
								"astId": 16,
								"contract": "UtilityBillTracker.sol:Project",
								"label": "isPaid",
								"offset": 0,
								"slot": "4",
								"type": "t_bool"
							},
							{
								"astId": 18,
								"contract": "UtilityBillTracker.sol:Project",
								"label": "datePaid",
								"offset": 0,
								"slot": "5",
								"type": "t_uint256"
							}
						],
						"numberOfBytes": "192"
					},
					"t_uint256": {
						"encoding": "inplace",
						"label": "uint256",
						"numberOfBytes": "32"
					}
				}
			},
			"userdoc": {
				"kind": "user",
				"methods": {
					"addBill(address,uint256,uint256)": {
						"notice": "Adds a new utility bill to the tracker. Only callable by the Owner."
					},
					"isOverdue(uint256)": {
						"notice": "Checks if a bill is past its due date."
					},
					"payBill(uint256)": {
						"notice": "Allows a consumer to pay their bill."
					}
				},
				"notice": "Smart contract for tracking and processing utility bill payments on the blockchain.",
				"version": 1
			}
		}
	}
}